{
    "contractName": "Flashloan",
    "abi": [
        {
            "inputs": [],
            "stateMutability": "payable",
            "type": "constructor",
            "payable": true
        },
        {
            "stateMutability": "payable",
            "type": "fallback",
            "payable": true
        },
        {
            "stateMutability": "payable",
            "type": "receive",
            "payable": true
        },
        {
            "inputs": [],
            "name": "withdrawEth",
            "outputs": [],
            "stateMutability": "nonpayable",
            "type": "function"
        },
        {
            "inputs": [
                {
                    "internalType": "address",
                    "name": "token",
                    "type": "address"
                }
            ],
            "name": "withdrawErc20",
            "outputs": [],
            "stateMutability": "nonpayable",
            "type": "function"
        },
        {
            "inputs": [
                {
                    "internalType": "address payable",
                    "name": "newOwner",
                    "type": "address"
                }
            ],
            "name": "changeOwner",
            "outputs": [],
            "stateMutability": "nonpayable",
            "type": "function"
        },
        {
            "inputs": [
                {
                    "internalType": "address",
                    "name": "sender",
                    "type": "address"
                },
                {
                    "internalType": "uint256",
                    "name": "amount0",
                    "type": "uint256"
                },
                {
                    "internalType": "uint256",
                    "name": "amount1",
                    "type": "uint256"
                },
                {
                    "internalType": "bytes",
                    "name": "data",
                    "type": "bytes"
                }
            ],
            "name": "uniswapV2Call",
            "outputs": [],
            "stateMutability": "nonpayable",
            "type": "function"
        },
        {
            "inputs": [
                {
                    "internalType": "bytes",
                    "name": "data",
                    "type": "bytes"
                }
            ],
            "name": "initiateTrade",
            "outputs": [],
            "stateMutability": "nonpayable",
            "type": "function"
        }
    ],
    "bytecode": "0x6080604052336000806101000a81548173ffffffffffffffffffffffffffffffffffffffff021916908373ffffffffffffffffffffffffffffffffffffffff1602179055506117d5806100536000396000f3fe60806040526004361061004e5760003560e01c806310d1e85c146100575780638788d08214610080578063a0ef91df146100a9578063a6f9dae1146100c0578063c7e42b1b146100e957610055565b3661005557005b005b34801561006357600080fd5b5061007e60048036038101906100799190611145565b610112565b005b34801561008c57600080fd5b506100a760048036038101906100a291906111ee565b6103a3565b005b3480156100b557600080fd5b506100be610837565b005b3480156100cc57600080fd5b506100e760048036038101906100e2919061111c565b61092e565b005b3480156100f557600080fd5b50610110600480360381019061010b91906110f3565b6109ff565b005b61011a610cfe565b8282810190610129919061125d565b905060018160c0015160ff16141561023d57806000015173ffffffffffffffffffffffffffffffffffffffff1663a9059cbb8260e001518360a001516040518363ffffffff1660e01b81526004016101829291906114c3565b602060405180830381600087803b15801561019c57600080fd5b505af11580156101b0573d6000803e3d6000fd5b505050506040513d601f19601f820116820180604052508101906101d491906111c5565b50610238816040015182606001518360e00151600067ffffffffffffffff811180156101ff57600080fd5b506040519080825280601f01601f1916602001820160405280156102325781602001600182028036833780820191505090505b50610bcc565b610305565b60028160c0015160ff16141561030457806000015173ffffffffffffffffffffffffffffffffffffffff1663095ea7b38260e001518360a001516040518363ffffffff1660e01b81526004016102949291906114c3565b602060405180830381600087803b1580156102ae57600080fd5b505af11580156102c2573d6000803e3d6000fd5b505050506040513d601f19601f820116820180604052508101906102e691906111c5565b50610303816000015182602001518360a001518460e00151610c43565b5b5b806020015173ffffffffffffffffffffffffffffffffffffffff1663a9059cbb3383608001516040518363ffffffff1660e01b815260040161034892919061149a565b602060405180830381600087803b15801561036257600080fd5b505af1158015610376573d6000803e3d6000fd5b505050506040513d601f19601f8201168201806040525081019061039a91906111c5565b50505050505050565b60008054906101000a900473ffffffffffffffffffffffffffffffffffffffff1673ffffffffffffffffffffffffffffffffffffffff163373ffffffffffffffffffffffffffffffffffffffff1614610431576040517f08c379a00000000000000000000000000000000000000000000000000000000081526004016104289061153f565b60405180910390fd5b60005a905061043e610d88565b838381019061044d9190611233565b9050600181610100015160ff161415610543576060604051806101000160405280836020015173ffffffffffffffffffffffffffffffffffffffff168152602001836000015173ffffffffffffffffffffffffffffffffffffffff168152602001836080015181526020018360a0015181526020018360c0015181526020018360e00151815260200183610120015160ff16815260200183610160015173ffffffffffffffffffffffffffffffffffffffff16815250604051602001610513919061155f565b604051602081830303815290604052905061053d8260400151836060015184610140015184610bcc565b50610634565b600181610120015160ff161415610633576060604051806101000160405280836000015173ffffffffffffffffffffffffffffffffffffffff168152602001836020015173ffffffffffffffffffffffffffffffffffffffff16815260200183604001518152602001836060015181526020018360e0015181526020018360c00151815260200183610100015160ff16815260200183610140015173ffffffffffffffffffffffffffffffffffffffff16815250604051602001610607919061155f565b604051602081830303815290604052905061063182608001518360a0015184610160015184610bcc565b505b5b806000015173ffffffffffffffffffffffffffffffffffffffff1663a9059cbb60008054906101000a900473ffffffffffffffffffffffffffffffffffffffff16836000015173ffffffffffffffffffffffffffffffffffffffff166370a08231306040518263ffffffff1660e01b81526004016106b2919061147f565b60206040518083038186803b1580156106ca57600080fd5b505afa1580156106de573d6000803e3d6000fd5b505050506040513d601f19601f820116820180604052508101906107029190611287565b6040518363ffffffff1660e01b815260040161071f92919061149a565b602060405180830381600087803b15801561073957600080fd5b505af115801561074d573d6000803e3d6000fd5b505050506040513d601f19601f8201168201806040525081019061077191906111c5565b50506000803690506010025a8361520801030190506d4946c0e9f43f4dee607b0ef1fa1c73ffffffffffffffffffffffffffffffffffffffff1663079d229f3361a3db61374a8501816107c057fe5b046040518363ffffffff1660e01b81526004016107de92919061149a565b602060405180830381600087803b1580156107f857600080fd5b505af115801561080c573d6000803e3d6000fd5b505050506040513d601f19601f820116820180604052508101906108309190611287565b5050505050565b60008054906101000a900473ffffffffffffffffffffffffffffffffffffffff1673ffffffffffffffffffffffffffffffffffffffff163373ffffffffffffffffffffffffffffffffffffffff16146108c5576040517f08c379a00000000000000000000000000000000000000000000000000000000081526004016108bc9061153f565b60405180910390fd5b60008054906101000a900473ffffffffffffffffffffffffffffffffffffffff1673ffffffffffffffffffffffffffffffffffffffff166108fc479081150290604051600060405180830381858888f1935050505015801561092b573d6000803e3d6000fd5b50565b60008054906101000a900473ffffffffffffffffffffffffffffffffffffffff1673ffffffffffffffffffffffffffffffffffffffff163373ffffffffffffffffffffffffffffffffffffffff16146109bc576040517f08c379a00000000000000000000000000000000000000000000000000000000081526004016109b39061153f565b60405180910390fd5b806000806101000a81548173ffffffffffffffffffffffffffffffffffffffff021916908373ffffffffffffffffffffffffffffffffffffffff16021790555050565b60008054906101000a900473ffffffffffffffffffffffffffffffffffffffff1673ffffffffffffffffffffffffffffffffffffffff163373ffffffffffffffffffffffffffffffffffffffff1614610a8d576040517f08c379a0000000000000000000000000000000000000000000000000000000008152600401610a849061153f565b60405180910390fd5b60008190508073ffffffffffffffffffffffffffffffffffffffff1663a9059cbb60008054906101000a900473ffffffffffffffffffffffffffffffffffffffff168373ffffffffffffffffffffffffffffffffffffffff166370a08231306040518263ffffffff1660e01b8152600401610b08919061147f565b60206040518083038186803b158015610b2057600080fd5b505afa158015610b34573d6000803e3d6000fd5b505050506040513d601f19601f82011682018060405250810190610b589190611287565b6040518363ffffffff1660e01b8152600401610b7592919061149a565b602060405180830381600087803b158015610b8f57600080fd5b505af1158015610ba3573d6000803e3d6000fd5b505050506040513d601f19601f82011682018060405250810190610bc791906111c5565b505050565b8173ffffffffffffffffffffffffffffffffffffffff1663022c0d9f858530856040518563ffffffff1660e01b8152600401610c0b949392919061157b565b600060405180830381600087803b158015610c2557600080fd5b505af1158015610c39573d6000803e3d6000fd5b5050505050505050565b8073ffffffffffffffffffffffffffffffffffffffff16638201aa3f85848660007fffffffffffffffffffffffffffffffffffffffffffffffffffffffffffffffff6040518663ffffffff1660e01b8152600401610ca59594939291906114ec565b6040805180830381600087803b158015610cbe57600080fd5b505af1158015610cd2573d6000803e3d6000fd5b505050506040513d601f19601f82011682018060405250810190610cf691906112b0565b505050505050565b604051806101000160405280600073ffffffffffffffffffffffffffffffffffffffff168152602001600073ffffffffffffffffffffffffffffffffffffffff16815260200160008152602001600081526020016000815260200160008152602001600060ff168152602001600073ffffffffffffffffffffffffffffffffffffffff1681525090565b604051806101800160405280600073ffffffffffffffffffffffffffffffffffffffff168152602001600073ffffffffffffffffffffffffffffffffffffffff168152602001600081526020016000815260200160008152602001600081526020016000815260200160008152602001600060ff168152602001600060ff168152602001600073ffffffffffffffffffffffffffffffffffffffff168152602001600073ffffffffffffffffffffffffffffffffffffffff1681525090565b600081359050610e568161172c565b92915050565b600081359050610e6b81611743565b92915050565b600081519050610e808161175a565b92915050565b60008083601f840112610e9857600080fd5b8235905067ffffffffffffffff811115610eb157600080fd5b602083019150836001820283011115610ec957600080fd5b9250929050565b60006101808284031215610ee357600080fd5b610eee6101806115c7565b90506000610efe84828501610e47565b6000830152506020610f1284828501610e47565b6020830152506040610f26848285016110b4565b6040830152506060610f3a848285016110b4565b6060830152506080610f4e848285016110b4565b60808301525060a0610f62848285016110b4565b60a08301525060c0610f76848285016110b4565b60c08301525060e0610f8a848285016110b4565b60e083015250610100610f9f848285016110de565b61010083015250610120610fb5848285016110de565b61012083015250610140610fcb84828501610e47565b61014083015250610160610fe184828501610e47565b6101608301525092915050565b6000610100828403121561100157600080fd5b61100c6101006115c7565b9050600061101c84828501610e47565b600083015250602061103084828501610e47565b6020830152506040611044848285016110b4565b6040830152506060611058848285016110b4565b606083015250608061106c848285016110b4565b60808301525060a0611080848285016110b4565b60a08301525060c0611094848285016110de565b60c08301525060e06110a884828501610e47565b60e08301525092915050565b6000813590506110c381611771565b92915050565b6000815190506110d881611771565b92915050565b6000813590506110ed81611788565b92915050565b60006020828403121561110557600080fd5b600061111384828501610e47565b91505092915050565b60006020828403121561112e57600080fd5b600061113c84828501610e5c565b91505092915050565b60008060008060006080868803121561115d57600080fd5b600061116b88828901610e47565b955050602061117c888289016110b4565b945050604061118d888289016110b4565b935050606086013567ffffffffffffffff8111156111aa57600080fd5b6111b688828901610e86565b92509250509295509295909350565b6000602082840312156111d757600080fd5b60006111e584828501610e71565b91505092915050565b6000806020838503121561120157600080fd5b600083013567ffffffffffffffff81111561121b57600080fd5b61122785828601610e86565b92509250509250929050565b6000610180828403121561124657600080fd5b600061125484828501610ed0565b91505092915050565b6000610100828403121561127057600080fd5b600061127e84828501610fee565b91505092915050565b60006020828403121561129957600080fd5b60006112a7848285016110c9565b91505092915050565b600080604083850312156112c357600080fd5b60006112d1858286016110c9565b92505060206112e2858286016110c9565b9150509250929050565b6112f58161168c565b82525050565b61130481611625565b82525050565b61131381611625565b82525050565b6000611324826115f8565b61132e8185611603565b935061133e8185602086016116e6565b6113478161171b565b840191505092915050565b61135b8161169e565b82525050565b61136a816116b0565b82525050565b600061137d601683611614565b91507f53656e646572206e6f7420617574686f72697a65642e000000000000000000006000830152602082019050919050565b610100820160008201516113c760008501826112fb565b5060208201516113da60208501826112fb565b5060408201516113ed6040850182611452565b5060608201516114006060850182611452565b5060808201516114136080850182611452565b5060a082015161142660a0850182611452565b5060c082015161143960c0850182611470565b5060e082015161144c60e08501826112fb565b50505050565b61145b81611675565b82525050565b61146a81611675565b82525050565b6114798161167f565b82525050565b600060208201905061149460008301846112ec565b92915050565b60006040820190506114af60008301856112ec565b6114bc6020830184611461565b9392505050565b60006040820190506114d8600083018561130a565b6114e56020830184611461565b9392505050565b600060a082019050611501600083018861130a565b61150e6020830187611461565b61151b604083018661130a565b6115286060830185611352565b6115356080830184611361565b9695505050505050565b6000602082019050818103600083015261155881611370565b9050919050565b60006101008201905061157560008301846113b0565b92915050565b60006080820190506115906000830187611461565b61159d6020830186611461565b6115aa60408301856112ec565b81810360608301526115bc8184611319565b905095945050505050565b6000604051905081810181811067ffffffffffffffff821117156115ee576115ed611719565b5b8060405250919050565b600081519050919050565b600082825260208201905092915050565b600082825260208201905092915050565b600061163082611655565b9050919050565b600061164282611655565b9050919050565b60008115159050919050565b600073ffffffffffffffffffffffffffffffffffffffff82169050919050565b6000819050919050565b600060ff82169050919050565b6000611697826116c2565b9050919050565b60006116a982611675565b9050919050565b60006116bb82611675565b9050919050565b60006116cd826116d4565b9050919050565b60006116df82611655565b9050919050565b60005b838110156117045780820151818401526020810190506116e9565b83811115611713576000848401525b50505050565bfe5b6000601f19601f8301169050919050565b61173581611625565b811461174057600080fd5b50565b61174c81611637565b811461175757600080fd5b50565b61176381611649565b811461176e57600080fd5b50565b61177a81611675565b811461178557600080fd5b50565b6117918161167f565b811461179c57600080fd5b5056fea26469706673582212203594463bbdf8c106f9af39a1881b9183ed16819d0bc2db61d52c04dc1de5acca64736f6c63430007040033",
    "immutableReferences": {},
    "source": "pragma solidity >=0.6.0;\r\npragma experimental ABIEncoderV2;\r\n\r\nimport \"./IERC20.sol\";\r\nimport \"./IChi.sol\";\r\nimport \"./BPool.sol\";\r\nimport \"./IUniswapV2Callee.sol\";\r\nimport \"./IUniswapV2Pair.sol\";\r\n\r\ncontract Flashloan is IUniswapV2Callee {\r\n    struct ArbInfo {\r\n        address outerToken;\r\n        address innerToken;\r\n        uint256 outputAmount0;\r\n        uint256 outputAmount1;\r\n        uint256 paybackAmount;\r\n        uint256 inputAmount;\r\n        uint8 exchange; //1:Uni/sushi, 2:bal\r\n        address pool;\r\n    }\r\n\r\n    struct ArbInfoParameters {\r\n        address _outerToken;\r\n        address _innerToken;\r\n        uint256 _awayOutput_0;\r\n        uint256 _awayOutput_1;\r\n        uint256 _returnOutput_0;\r\n        uint256 _returnOutput_1;\r\n        uint256 _awayInput;\r\n        uint256 _returnInput;\r\n        uint8 _awayExchange; //1:Uni/sushi, 2:Bal\r\n        uint8 _returnExchange; //1:Uni/sushi, 2:bal\r\n        address _awayPool;\r\n        address _returnPool;\r\n    }\r\n\r\n    address payable owner;\r\n\r\n    //Create modifier to limit who can call the contract\r\n    modifier onlyOwner() {\r\n        require(msg.sender == owner, \"Sender not authorized.\");\r\n        // Do not forget the \"_;\"! It will\r\n        // be replaced by the actual function\r\n        // body when the modifier is used.\r\n        _;\r\n    }\r\n\r\n    modifier discountCHI {\r\n        uint256 gasStart = gasleft();\r\n        _;\r\n        uint256 gasSpent = 21000 + gasStart - gasleft() + 16 * msg.data.length;\r\n        ChiToken(0x0000000000004946c0e9F43F4Dee607b0eF1fA1c).freeFromUpTo(\r\n            msg.sender,\r\n            (gasSpent + 14154) / 41947\r\n        );\r\n    }\r\n\r\n    //Create address variables for relevant exchanges\r\n    constructor() public payable {\r\n        owner = msg.sender;\r\n    }\r\n\r\n    //Withdraws any ethereum from the address\r\n    function withdrawEth() public onlyOwner {\r\n        owner.transfer(address(this).balance);\r\n    }\r\n\r\n    //Withdraw a specific ERC20 token\r\n    function withdrawErc20(address token) external onlyOwner {\r\n        IERC20 newToken = IERC20(token);\r\n        newToken.transfer(owner, newToken.balanceOf(address(this)));\r\n    }\r\n\r\n    //Change the contract owner\r\n    function changeOwner(address payable newOwner) external onlyOwner {\r\n        owner = newOwner;\r\n    }\r\n\r\n    //This functions exchanges sellBalance of sellCoin for buyCoin\r\n    function tradeOnUniSushi(\r\n        uint256 AmountOut0,\r\n        uint256 AmountOut1,\r\n        address pool,\r\n        bytes memory data\r\n    ) private {\r\n        IUniswapV2Pair(pool).swap(AmountOut0, AmountOut1, address(this), data);\r\n    }\r\n\r\n    function tradeOnBalancer(\r\n        address sellCoin,\r\n        address buyCoin,\r\n        uint256 sellBalance,\r\n        address pool\r\n    ) private {\r\n        BPool(pool).swapExactAmountIn(\r\n            sellCoin,\r\n            sellBalance, // maxAmountIn, set to max -> use all sent ETH\r\n            buyCoin,\r\n            0, // Min out 0 means we accept any amount\r\n            2**256 - 1 //Max price\r\n        );\r\n    }\r\n\r\n    //Callback from uniswap or sushiswap pool flashloan\r\n    function uniswapV2Call(\r\n        address sender,\r\n        uint256 amount0,\r\n        uint256 amount1,\r\n        bytes calldata data\r\n    ) external override {\r\n        ArbInfo memory arbInfo = abi.decode(data, (ArbInfo));\r\n        if (arbInfo.exchange == 1) {\r\n            //Uniswap\r\n            IERC20(arbInfo.outerToken).transfer(arbInfo.pool, arbInfo.inputAmount);\r\n            tradeOnUniSushi(\r\n                arbInfo.outputAmount0,\r\n                arbInfo.outputAmount1,\r\n                arbInfo.pool,\r\n                new bytes(0)\r\n            ); //Regular uni trade\r\n        } else if (arbInfo.exchange == 2) {\r\n            //Bal\r\n            IERC20(arbInfo.outerToken).approve(arbInfo.pool, arbInfo.inputAmount);\r\n            tradeOnBalancer(\r\n                arbInfo.outerToken,\r\n                arbInfo.innerToken,\r\n                arbInfo.inputAmount,\r\n                arbInfo.pool\r\n            );\r\n        }\r\n\r\n        //Return owed amount to uniswap/sushiswap\r\n        IERC20(arbInfo.innerToken).transfer(msg.sender, arbInfo.paybackAmount);\r\n    }\r\n\r\n    //This is the function that initiates the arbitrage play\r\n    //It withdraws the flashloan from dydx and then calls the callFunction in this contract and then deposits the flashloan back\r\n    function initiateTrade(bytes calldata data) external onlyOwner discountCHI {\r\n        ArbInfoParameters memory AIP = abi.decode(data, (ArbInfoParameters));\r\n        //WE ASSUME EVERY TRADE STARTS WITH UNISWAP AND OPTIMISTICALLY WITHDRAW\r\n        if (AIP._awayExchange == 1) {\r\n            //UNISWAP IS FIRST, SO SWAP ALL THE TOKEN ORDER (NEXT TRADE WILL BE innerToken->outerToken)\r\n            bytes memory arbData =\r\n                abi.encode(\r\n                    ArbInfo({\r\n                        outerToken: AIP._innerToken,\r\n                        innerToken: AIP._outerToken,\r\n                        outputAmount0: AIP._returnOutput_0,\r\n                        outputAmount1: AIP._returnOutput_1,\r\n                        paybackAmount: AIP._awayInput,\r\n                        inputAmount: AIP._returnInput,\r\n                        exchange: AIP._returnExchange,\r\n                        pool: AIP._returnPool\r\n                    })\r\n                );\r\n            tradeOnUniSushi(\r\n                AIP._awayOutput_0,\r\n                AIP._awayOutput_1,\r\n                AIP._awayPool,\r\n                arbData\r\n            ); //Optimistically withdraw and callback uniswapV2Call\r\n        } else if (AIP._returnExchange == 1) {\r\n            //UNISWAP IS SECOND\r\n            bytes memory arbData =\r\n                abi.encode(\r\n                    ArbInfo({\r\n                        outerToken: AIP._outerToken,\r\n                        innerToken: AIP._innerToken,\r\n                        outputAmount0: AIP._awayOutput_0,\r\n                        outputAmount1: AIP._awayOutput_1,\r\n                        paybackAmount: AIP._returnInput,\r\n                        inputAmount: AIP._awayInput,\r\n                        exchange: AIP._awayExchange,\r\n                        pool: AIP._awayPool\r\n                    })\r\n                );\r\n            tradeOnUniSushi(\r\n                AIP._returnOutput_0,\r\n                AIP._returnOutput_1,\r\n                AIP._returnPool,\r\n                arbData\r\n            ); //Optimistically withdraw and callback uniswapV2Call\r\n        }\r\n\r\n        IERC20(AIP._outerToken).transfer(\r\n            owner,\r\n            IERC20(AIP._outerToken).balanceOf(address(this))\r\n        ); //WITHDRAW PROFIT\r\n    }\r\n\r\n    fallback() external payable {}\r\n\r\n    receive() external payable {}\r\n}\r\n",
    "sourcePath": "C:/Users/Paul/Desktop/cryptoarb/profitable-flashloans/bot-contract/src/deployment/contracts/Execution/Flashloan_Uni.sol",
    "compiler": {
        "name": "solc",
        "version": "0.7.4+commit.3f05b770.Emscripten.clang"
    },
    "schemaVersion": "3.3.1",
    "updatedAt": "2021-02-21T19:41:00.327Z",
    "networkType": "ethereum",
    "devdoc": {
        "kind": "dev",
        "methods": {},
        "version": 1
    },
    "userdoc": {
        "kind": "user",
        "methods": {},
        "version": 1
    }
}