{
    "contractName": "optimalOpportunities",
    "abi": [
        {
            "inputs": [
                {
                    "internalType": "address",
                    "name": "uniswapFactory",
                    "type": "address"
                }
            ],
            "stateMutability": "nonpayable",
            "type": "constructor"
        },
        {
            "inputs": [
                {
                    "internalType": "address payable",
                    "name": "newOwner",
                    "type": "address"
                }
            ],
            "name": "changeOwner",
            "outputs": [],
            "stateMutability": "nonpayable",
            "type": "function"
        },
        {
            "inputs": [
                {
                    "internalType": "address",
                    "name": "newAddress",
                    "type": "address"
                }
            ],
            "name": "changeUniswapFactory",
            "outputs": [],
            "stateMutability": "nonpayable",
            "type": "function"
        },
        {
            "inputs": [
                {
                    "internalType": "address",
                    "name": "outerToken",
                    "type": "address"
                },
                {
                    "internalType": "address",
                    "name": "innerToken",
                    "type": "address"
                },
                {
                    "internalType": "address",
                    "name": "stdCoin",
                    "type": "address"
                },
                {
                    "internalType": "uint256",
                    "name": "portion",
                    "type": "uint256"
                },
                {
                    "internalType": "bytes",
                    "name": "_exchanges",
                    "type": "bytes"
                }
            ],
            "name": "getBestOpportunity",
            "outputs": [
                {
                    "components": [
                        {
                            "internalType": "address",
                            "name": "outerCoin",
                            "type": "address"
                        },
                        {
                            "internalType": "address",
                            "name": "innerCoin",
                            "type": "address"
                        },
                        {
                            "internalType": "string",
                            "name": "awayExchange",
                            "type": "string"
                        },
                        {
                            "internalType": "address",
                            "name": "awayPool",
                            "type": "address"
                        },
                        {
                            "internalType": "string",
                            "name": "returnExchange",
                            "type": "string"
                        },
                        {
                            "internalType": "address",
                            "name": "returnPool",
                            "type": "address"
                        },
                        {
                            "internalType": "uint256",
                            "name": "inputWeiCoin",
                            "type": "uint256"
                        },
                        {
                            "internalType": "uint256",
                            "name": "innerWeiCoin",
                            "type": "uint256"
                        },
                        {
                            "internalType": "uint256",
                            "name": "outputWeiCoin",
                            "type": "uint256"
                        },
                        {
                            "internalType": "uint256",
                            "name": "diff",
                            "type": "uint256"
                        },
                        {
                            "internalType": "uint256",
                            "name": "stdDiff",
                            "type": "uint256"
                        },
                        {
                            "internalType": "bool",
                            "name": "ignore",
                            "type": "bool"
                        }
                    ],
                    "internalType": "struct optimalOpportunities.Opportunity",
                    "name": "",
                    "type": "tuple"
                }
            ],
            "stateMutability": "view",
            "type": "function"
        }
    ],
    "bytecode": "0x60806040523480156200001157600080fd5b5060405162002aa738038062002aa78339818101604052810190620000379190620000d6565b806000806101000a81548173ffffffffffffffffffffffffffffffffffffffff021916908373ffffffffffffffffffffffffffffffffffffffff16021790555033600160006101000a81548173ffffffffffffffffffffffffffffffffffffffff021916908373ffffffffffffffffffffffffffffffffffffffff1602179055505062000150565b600081519050620000d08162000136565b92915050565b600060208284031215620000e957600080fd5b6000620000f984828501620000bf565b91505092915050565b60006200010f8262000116565b9050919050565b600073ffffffffffffffffffffffffffffffffffffffff82169050919050565b620001418162000102565b81146200014d57600080fd5b50565b61294780620001606000396000f3fe608060405234801561001057600080fd5b50600436106100415760003560e01c8063801444b114610046578063a6f9dae114610076578063e48ad60d14610092575b600080fd5b610060600480360381019061005b9190611f4b565b6100ae565b60405161006d9190612615565b60405180910390f35b610090600480360381019061008b9190611f22565b6101bc565b005b6100ac60048036038101906100a79190611ef9565b610290565b005b6100b6611953565b6100be611a0e565b83838101906100cd919061208f565b90506100d7611a0e565b60405180608001604052808360200151815260200183600001518152602001836060015173ffffffffffffffffffffffffffffffffffffffff168152602001836040015173ffffffffffffffffffffffffffffffffffffffff16815250905061013e611953565b61014b838b8b8b8b610363565b9050610155611953565b610162848c8c8c8c610363565b90508161016001511561017b57809450505050506101b2565b8061016001511561019257819450505050506101b2565b806101400151826101400151116101a957806101ab565b815b9450505050505b9695505050505050565b600160009054906101000a900473ffffffffffffffffffffffffffffffffffffffff1673ffffffffffffffffffffffffffffffffffffffff163373ffffffffffffffffffffffffffffffffffffffff161461024c576040517f08c379a0000000000000000000000000000000000000000000000000000000008152600401610243906125f5565b60405180910390fd5b80600160006101000a81548173ffffffffffffffffffffffffffffffffffffffff021916908373ffffffffffffffffffffffffffffffffffffffff16021790555050565b600160009054906101000a900473ffffffffffffffffffffffffffffffffffffffff1673ffffffffffffffffffffffffffffffffffffffff163373ffffffffffffffffffffffffffffffffffffffff1614610320576040517f08c379a0000000000000000000000000000000000000000000000000000000008152600401610317906125f5565b60405180910390fd5b806000806101000a81548173ffffffffffffffffffffffffffffffffffffffff021916908373ffffffffffffffffffffffffffffffffffffffff16021790555050565b61036b611953565b610373611a62565b6040518061020001604052808773ffffffffffffffffffffffffffffffffffffffff1681526020018673ffffffffffffffffffffffffffffffffffffffff16815260200160008152602001600081526020016000600f0b81526020016000600f0b81526020016000815260200160008152602001600073ffffffffffffffffffffffffffffffffffffffff16815260200184815260200188600001518152602001886040015173ffffffffffffffffffffffffffffffffffffffff16815260200160008152602001600081526020016000600f0b815260200160001515815250905061045d611a62565b6040518061020001604052808773ffffffffffffffffffffffffffffffffffffffff1681526020018873ffffffffffffffffffffffffffffffffffffffff16815260200160008152602001600081526020016000600f0b81526020016000600f0b81526020016000815260200160008152602001600073ffffffffffffffffffffffffffffffffffffffff16815260200185815260200189602001518152602001896060015173ffffffffffffffffffffffffffffffffffffffff16815260200160008152602001600081526020016000600f0b815260200160001515815250905061054882610723565b915061055381610723565b90506000826101e0015115801561056d5750816101e00151155b156106055761057c8383610b6f565b92506105888284610b6f565b9150826101e001511580156105a05750816101e00151155b156105fb578160c001518360e00151116105d0576105c28360e0015183610f1f565b8260e00181815250506105f6565b6105de8260c001518461111f565b8360c00181815250508160c001518360e00181815250505b610600565b600190505b61060a565b600190505b610612611953565b604051806101800160405280856000015173ffffffffffffffffffffffffffffffffffffffff168152602001856020015173ffffffffffffffffffffffffffffffffffffffff168152602001856101400151815260200185610100015173ffffffffffffffffffffffffffffffffffffffff168152602001846101400151815260200184610100015173ffffffffffffffffffffffffffffffffffffffff1681526020018560c0015181526020018560e0015181526020018460e0015181526020018560c001518560e00151116106ea5760006106f6565b8560c001518560e00151035b8152602001600081526020018315158152509050610714818861131f565b94505050505095945050505050565b61072b611a62565b6040518060400160405280600781526020017f756e697377617000000000000000000000000000000000000000000000000000815250805190602001208261014001518051906020012014156109395773__Uniswap_______________________________6332749461836000015184602001518561016001516040518463ffffffff1660e01b81526004016107c393929190612534565b60606040518083038186803b1580156107db57600080fd5b505af492505050801561080c57506040513d601f19601f82011682018060405250810190610809919061213a565b60015b610827576001826101e0019015159081151581525050610934565b828282876040018860600189610100018373ffffffffffffffffffffffffffffffffffffffff1673ffffffffffffffffffffffffffffffffffffffff16815250838152508381525050505067fa1cac11807d5000856101c00190600f0b9081600f0b8152505073__Optimizers____________________________63db2bad14866040518263ffffffff1660e01b81526004016108c49190612637565b60206040518083038186803b1580156108dc57600080fd5b505af41580156108f0573d6000803e3d6000fd5b505050506040513d601f19601f820116820180604052508101906109149190612066565b8560800190600f0b9081600f0b8152505061092e856114d1565b94505050505b610b67565b6040518060400160405280600881526020017f62616c616e63657200000000000000000000000000000000000000000000000081525080519060200120826101400151805190602001201415610b665773__Balancer______________________________63fc0c20fd836000015184602001518561016001516040518463ffffffff1660e01b81526004016109d193929190612534565b60c06040518083038186803b1580156109e957600080fd5b505af4925050508015610a1a57506040513d601f19601f82011682018060405250810190610a179190611fdd565b60015b610a35576001826101e0019015159081151581525050610b65565b848487858b6040018c6060018d610100018e61018001848152508473ffffffffffffffffffffffffffffffffffffffff1673ffffffffffffffffffffffffffffffffffffffff1681525084815250848152505050505081886101a0018181525050610a9f8161170f565b886101c00190600f0b9081600f0b8152505073__Optimizers____________________________63bf814311896040518263ffffffff1660e01b8152600401610ae89190612637565b60006040518083038186803b158015610b0057600080fd5b505af4925050508015610b3657506040513d6000823e3d601f19601f82011682018060405250810190610b3391906120d0565b60015b610b51576001886101e0019015159081151581525050610b5e565b610b5a816114d1565b9850505b5050505050505b5b5b819050919050565b610b77611a62565b6040518060400160405280600781526020017f756e69737761700000000000000000000000000000000000000000000000000081525080519060200120836101400151805190602001201415610d4f5773__Optimizers____________________________6348aeb20084608001518460a0015186610120015187606001516040518563ffffffff1660e01b8152600401610c1594939291906125b0565b60206040518083038186803b158015610c2d57600080fd5b505af4158015610c41573d6000803e3d6000fd5b505050506040513d601f19601f82011682018060405250810190610c659190612111565b8360e001818152505060008360e001511115610d375773__Uniswap_______________________________6385f8c2598460e00151856040015186606001516040518463ffffffff1660e01b8152600401610cc2939291906126b9565b60206040518083038186803b158015610cda57600080fd5b505af4925050508015610d0b57506040513d601f19601f82011682018060405250810190610d089190612111565b60015b610d26576001836101e0019015159081151581525050610d32565b808460c0018181525050505b610d4a565b6001836101e00190151590811515815250505b610f16565b6040518060400160405280600881526020017f62616c616e63657200000000000000000000000000000000000000000000000081525080519060200120836101400151805190602001201415610f155773__Optimizers____________________________63c14ef04484846040518363ffffffff1660e01b8152600401610dd8929190612659565b60206040518083038186803b158015610df057600080fd5b505af4158015610e04573d6000803e3d6000fd5b505050506040513d601f19601f82011682018060405250810190610e289190612111565b8360c001818152505060008360c001511115610f015773__Balancer______________________________63d7176ca9846101000151856000015186602001518760c001516040518563ffffffff1660e01b8152600401610e8c949392919061256b565b60206040518083038186803b158015610ea457600080fd5b505af4925050508015610ed557506040513d601f19601f82011682018060405250810190610ed29190612111565b60015b610ef0576001836101e0019015159081151581525050610efc565b808460e0018181525050505b610f14565b6001836101e00190151590811515815250505b5b5b82905092915050565b600080831115611114576040518060400160405280600781526020017f756e6973776170000000000000000000000000000000000000000000000000008152508051906020012082610140015180519060200120141561101c5773__Uniswap_______________________________63054d50d484846040015185606001516040518463ffffffff1660e01b8152600401610fbc939291906126b9565b60206040518083038186803b158015610fd457600080fd5b505af492505050801561100557506040513d601f19601f820116820180604052508101906110029190612111565b60015b61100e57611017565b80915050611119565b611113565b6040518060400160405280600881526020017f62616c616e636572000000000000000000000000000000000000000000000000815250805190602001208261014001518051906020012014156111125773__Balancer______________________________63d7176ca983610100015184600001518560200151876040518563ffffffff1660e01b81526004016110b6949392919061256b565b60206040518083038186803b1580156110ce57600080fd5b505af49250505080156110ff57506040513d601f19601f820116820180604052508101906110fc9190612111565b60015b61110857611111565b80915050611119565b5b5b5b600090505b92915050565b600080831115611314576040518060400160405280600781526020017f756e6973776170000000000000000000000000000000000000000000000000008152508051906020012082610140015180519060200120141561121c5773__Uniswap_______________________________6385f8c25984846040015185606001516040518463ffffffff1660e01b81526004016111bc939291906126b9565b60206040518083038186803b1580156111d457600080fd5b505af492505050801561120557506040513d601f19601f820116820180604052508101906112029190612111565b60015b61120e57611217565b80915050611319565b611313565b6040518060400160405280600881526020017f62616c616e636572000000000000000000000000000000000000000000000000815250805190602001208261014001518051906020012014156113125773__Balancer______________________________63ec27830983610100015184600001518560200151876040518563ffffffff1660e01b81526004016112b6949392919061256b565b60206040518083038186803b1580156112ce57600080fd5b505af49250505080156112ff57506040513d601f19601f820116820180604052508101906112fc9190612111565b60015b61130857611311565b80915050611319565b5b5b5b600090505b92915050565b611327611953565b8173ffffffffffffffffffffffffffffffffffffffff16836000015173ffffffffffffffffffffffffffffffffffffffff16146114b75773__Uniswap_______________________________633274946184600001518460008054906101000a900473ffffffffffffffffffffffffffffffffffffffff166040518463ffffffff1660e01b81526004016113bd93929190612534565b60606040518083038186803b1580156113d557600080fd5b505af492505050801561140657506040513d601f19601f82011682018060405250810190611403919061213a565b60015b61140f576114b2565b73__Uniswap_______________________________63054d50d487610120015185856040518463ffffffff1660e01b815260040161144f939291906126b9565b60206040518083038186803b15801561146757600080fd5b505af492505050801561149857506040513d601f19601f820116820180604052508101906114959190612111565b60015b6114a1576114ae565b8087610140018181525050505b5050505b6114c8565b826101200151836101400181815250505b82905092915050565b6114d9611a62565b6040518060400160405280600781526020017f756e697377617000000000000000000000000000000000000000000000000000815250805190602001208261014001518051906020012014156115e75773__Uniswap_______________________________63f5871e6d836060015184604001516040518363ffffffff1660e01b815260040161156a929190612690565b60206040518083038186803b15801561158257600080fd5b505af49250505080156115b357506040513d601f19601f820116820180604052508101906115b09190612066565b60015b6115ce576001826101e00190151590811515815250506115e2565b808360a00190600f0b9081600f0b81525050505b611707565b6040518060400160405280600881526020017f62616c616e636572000000000000000000000000000000000000000000000000815250805190602001208261014001518051906020012014156117065773__Optimizers____________________________63f0c0448c8360600151846101a001518560400151866101800151876101c001516040518663ffffffff1660e01b815260040161168d9594939291906126f0565b60206040518083038186803b1580156116a557600080fd5b505af49250505080156116d657506040513d601f19601f820116820180604052508101906116d39190612066565b60015b6116f1576001826101e0019015159081151581525050611705565b808360a00190600f0b9081600f0b81525050505b5b5b819050919050565b600061172382670de0b6b3a764000061172a565b9050919050565b60008082141561173957600080fd5b60006117458484611792565b90506f7fffffffffffffffffffffffffffffff6fffffffffffffffffffffffffffffffff16816fffffffffffffffffffffffffffffffff16111561178857600080fd5b8091505092915050565b6000808214156117a157600080fd5b600077ffffffffffffffffffffffffffffffffffffffffffffffff84116117d75782604085901b816117cf57fe5b04905061192c565b600060c09050600060c086901c9050640100000000811061180057602081901c90506020820191505b62010000811061181857601081901c90506010820191505b610100811061182f57600881901c90506008820191505b6010811061184557600481901c90506004820191505b6004811061185b57600281901c90506002820191505b6002811061186a576001820191505b600160bf830360018703901c018260ff0387901b8161188557fe5b0492506fffffffffffffffffffffffffffffffff8311156118a557600080fd5b6000608086901c8402905060006fffffffffffffffffffffffffffffffff871685029050600060c089901c9050600060408a901b9050828110156118ea576001820391505b8281039050608084901b925082811015611905576001820391505b8281039050608084901c821461191757fe5b88818161192057fe5b04870196505050505050505b6fffffffffffffffffffffffffffffffff81111561194957600080fd5b8091505092915050565b604051806101800160405280600073ffffffffffffffffffffffffffffffffffffffff168152602001600073ffffffffffffffffffffffffffffffffffffffff16815260200160608152602001600073ffffffffffffffffffffffffffffffffffffffff16815260200160608152602001600073ffffffffffffffffffffffffffffffffffffffff16815260200160008152602001600081526020016000815260200160008152602001600081526020016000151581525090565b60405180608001604052806060815260200160608152602001600073ffffffffffffffffffffffffffffffffffffffff168152602001600073ffffffffffffffffffffffffffffffffffffffff1681525090565b604051806102000160405280600073ffffffffffffffffffffffffffffffffffffffff168152602001600073ffffffffffffffffffffffffffffffffffffffff16815260200160008152602001600081526020016000600f0b81526020016000600f0b81526020016000815260200160008152602001600073ffffffffffffffffffffffffffffffffffffffff1681526020016000815260200160608152602001600073ffffffffffffffffffffffffffffffffffffffff16815260200160008152602001600081526020016000600f0b81526020016000151581525090565b600081359050611b518161289e565b92915050565b600081519050611b668161289e565b92915050565b600081359050611b7b816128b5565b92915050565b600081519050611b90816128cc565b92915050565b60008083601f840112611ba857600080fd5b8235905067ffffffffffffffff811115611bc157600080fd5b602083019150836001820283011115611bd957600080fd5b9250929050565b600081519050611bef816128e3565b92915050565b600082601f830112611c0657600080fd5b8135611c19611c1482612774565b612743565b91508082526020830160208301858383011115611c3557600080fd5b611c40838284612849565b50505092915050565b600082601f830112611c5a57600080fd5b8151611c6d611c6882612774565b612743565b91508082526020830160208301858383011115611c8957600080fd5b611c94838284612858565b50505092915050565b600060808284031215611caf57600080fd5b611cb96080612743565b9050600082013567ffffffffffffffff811115611cd557600080fd5b611ce184828501611bf5565b600083015250602082013567ffffffffffffffff811115611d0157600080fd5b611d0d84828501611bf5565b6020830152506040611d2184828501611b42565b6040830152506060611d3584828501611b42565b60608301525092915050565b60006102008284031215611d5457600080fd5b611d5f610200612743565b90506000611d6f84828501611b57565b6000830152506020611d8384828501611b57565b6020830152506040611d9784828501611ee4565b6040830152506060611dab84828501611ee4565b6060830152506080611dbf84828501611be0565b60808301525060a0611dd384828501611be0565b60a08301525060c0611de784828501611ee4565b60c08301525060e0611dfb84828501611ee4565b60e083015250610100611e1084828501611b57565b61010083015250610120611e2684828501611ee4565b6101208301525061014082015167ffffffffffffffff811115611e4857600080fd5b611e5484828501611c49565b61014083015250610160611e6a84828501611b57565b61016083015250610180611e8084828501611ee4565b610180830152506101a0611e9684828501611ee4565b6101a0830152506101c0611eac84828501611be0565b6101c0830152506101e0611ec284828501611b81565b6101e08301525092915050565b600081359050611ede816128fa565b92915050565b600081519050611ef3816128fa565b92915050565b600060208284031215611f0b57600080fd5b6000611f1984828501611b42565b91505092915050565b600060208284031215611f3457600080fd5b6000611f4284828501611b6c565b91505092915050565b60008060008060008060a08789031215611f6457600080fd5b6000611f7289828a01611b42565b9650506020611f8389828a01611b42565b9550506040611f9489828a01611b42565b9450506060611fa589828a01611ecf565b935050608087013567ffffffffffffffff811115611fc257600080fd5b611fce89828a01611b96565b92509250509295509295509295565b60008060008060008060c08789031215611ff657600080fd5b600061200489828a01611b57565b965050602061201589828a01611ee4565b955050604061202689828a01611ee4565b945050606061203789828a01611ee4565b935050608061204889828a01611ee4565b92505060a061205989828a01611ee4565b9150509295509295509295565b60006020828403121561207857600080fd5b600061208684828501611be0565b91505092915050565b6000602082840312156120a157600080fd5b600082013567ffffffffffffffff8111156120bb57600080fd5b6120c784828501611c9d565b91505092915050565b6000602082840312156120e257600080fd5b600082015167ffffffffffffffff8111156120fc57600080fd5b61210884828501611d41565b91505092915050565b60006020828403121561212357600080fd5b600061213184828501611ee4565b91505092915050565b60008060006060848603121561214f57600080fd5b600061215d86828701611ee4565b935050602061216e86828701611ee4565b925050604061217f86828701611b57565b9150509250925092565b612192816127e2565b82525050565b6121a1816127e2565b82525050565b6121b0816127e2565b82525050565b6121bf81612806565b82525050565b6121ce81612806565b82525050565b6121dd81612812565b82525050565b6121ec81612812565b82525050565b60006121fd826127a4565b61220781856127af565b9350612217818560208601612858565b6122208161288d565b840191505092915050565b6000612236826127a4565b61224081856127d1565b9350612250818560208601612858565b6122598161288d565b840191505092915050565b60006122716016836127c0565b91507f53656e646572206e6f7420617574686f72697a65642e000000000000000000006000830152602082019050919050565b6000610180830160008301516122bd6000860182612189565b5060208301516122d06020860182612189565b50604083015184820360408601526122e882826121f2565b91505060608301516122fd6060860182612189565b506080830151848203608086015261231582826121f2565b91505060a083015161232a60a0860182612189565b5060c083015161233d60c0860182612507565b5060e083015161235060e0860182612507565b50610100830151612365610100860182612507565b5061012083015161237a610120860182612507565b5061014083015161238f610140860182612507565b506101608301516123a46101608601826121b6565b508091505092915050565b6000610200830160008301516123c860008601826121a7565b5060208301516123db60208601826121a7565b5060408301516123ee6040860182612525565b5060608301516124016060860182612525565b50608083015161241460808601826121e3565b5060a083015161242760a08601826121e3565b5060c083015161243a60c0860182612525565b5060e083015161244d60e0860182612525565b506101008301516124626101008601826121a7565b50610120830151612477610120860182612525565b50610140830151848203610140860152612491828261222b565b9150506101608301516124a86101608601826121a7565b506101808301516124bd610180860182612525565b506101a08301516124d26101a0860182612525565b506101c08301516124e76101c08601826121e3565b506101e08301516124fc6101e08601826121c5565b508091505092915050565b6125108161283f565b82525050565b61251f8161283f565b82525050565b61252e8161283f565b82525050565b60006060820190506125496000830186612198565b6125566020830185612198565b6125636040830184612198565b949350505050565b60006080820190506125806000830187612198565b61258d6020830186612198565b61259a6040830185612198565b6125a76060830184612516565b95945050505050565b60006080820190506125c560008301876121d4565b6125d260208301866121d4565b6125df6040830185612516565b6125ec6060830184612516565b95945050505050565b6000602082019050818103600083015261260e81612264565b9050919050565b6000602082019050818103600083015261262f81846122a4565b905092915050565b6000602082019050818103600083015261265181846123af565b905092915050565b6000604082019050818103600083015261267381856123af565b9050818103602083015261268781846123af565b90509392505050565b60006040820190506126a56000830185612516565b6126b26020830184612516565b9392505050565b60006060820190506126ce6000830186612516565b6126db6020830185612516565b6126e86040830184612516565b949350505050565b600060a0820190506127056000830188612516565b6127126020830187612516565b61271f6040830186612516565b61272c6060830185612516565b61273960808301846121d4565b9695505050505050565b6000604051905081810181811067ffffffffffffffff8211171561276a5761276961288b565b5b8060405250919050565b600067ffffffffffffffff82111561278f5761278e61288b565b5b601f19601f8301169050602081019050919050565b600081519050919050565b600082825260208201905092915050565b600082825260208201905092915050565b600082825260208201905092915050565b60006127ed8261281f565b9050919050565b60006127ff8261281f565b9050919050565b60008115159050919050565b600081600f0b9050919050565b600073ffffffffffffffffffffffffffffffffffffffff82169050919050565b6000819050919050565b82818337600083830152505050565b60005b8381101561287657808201518184015260208101905061285b565b83811115612885576000848401525b50505050565bfe5b6000601f19601f8301169050919050565b6128a7816127e2565b81146128b257600080fd5b50565b6128be816127f4565b81146128c957600080fd5b50565b6128d581612806565b81146128e057600080fd5b50565b6128ec81612812565b81146128f757600080fd5b50565b6129038161283f565b811461290e57600080fd5b5056fea26469706673582212204bd00bdb2cbaf3b316cfb39d1641b703830040fc78c24ba57e1fe4fd2974d67364736f6c63430007040033",
    "immutableReferences": {},
    "source": "pragma solidity >=0.6.0;\r\n// SPDX-License-Identifier: UNLICENSED\r\npragma experimental ABIEncoderV2;\r\nimport './Uniswap.sol';\r\nimport './Optimizers.sol';\r\nimport './Balancer.sol';\r\n\r\n// [\"balancer\",\"uniswap\",\"0xC5570FC7C828A8400605e9843106aBD675006093\",\"0x5C69bEe701ef814a2B6a3EDD4B1652CB9cc5aA6f\"],\"0x4F96Fe3b7A6Cf9725f59d353F723c1bDb64CA6Aa\",\"0xd0A1E359811322d97991E03f863a0C30C2cF029C\",\"0xd0A1E359811322d97991E03f863a0C30C2cF029C\",\"10000000\"\r\n\r\ncontract optimalOpportunities {\r\n\taddress UniswapFactoryAddress; //For converting to std\r\n\taddress owner;\r\n\r\n\t// OouterCoin -> innerCoin -> outerCoin\r\n\tstruct Exchanges {\r\n\t\tstring exchangeIn;\r\n\t\tstring exchangeOut;\r\n\t\taddress inProxy;\r\n\t\taddress outProxy;\r\n\t}\r\n\r\n\tstruct Opportunity {\r\n\t\taddress outerCoin;\r\n\t\taddress innerCoin;\r\n\t\tstring awayExchange;\r\n\t\taddress awayPool;\r\n\t\tstring returnExchange;\r\n\t\taddress returnPool;\r\n\t\tuint256 inputWeiCoin;\r\n\t\tuint256 innerWeiCoin;\r\n\t\tuint256 outputWeiCoin;\r\n\t\tuint256 diff;\r\n\t\tuint256 stdDiff;\r\n\t\tbool ignore;\r\n\t}\r\n\r\n\tstruct OptimalInfo {\r\n\t\taddress tokenIn;\r\n\t\taddress tokenOut;\r\n\t\tuint256 reserveIn;\r\n\t\tuint256 reserveOut;\r\n\t\tint128 optimalPreMP;\r\n\t\tint128 MP;\r\n\t\tuint256 optimalInput;\r\n\t\tuint256 optimalOutput;\r\n\t\taddress poolAddress;\r\n\t\tuint256 portion;\r\n\t\tstring exchange;\r\n\t\taddress proxy;\r\n\t\tuint256 weightIn; // balancer weights if on balancer\r\n\t\tuint256 weightOut;\r\n\t\tint128 swapFee; // swap fee on balancer\r\n\t\tbool ignore;\r\n\t}\r\n\r\n\t//Create modifier to limit who can call the contract\r\n\tmodifier onlyOwner() {\r\n\t\trequire(msg.sender == owner, 'Sender not authorized.');\r\n\t\t// Do not forget the \"_;\"! It will\r\n\t\t// be replaced by the actual function\r\n\t\t// body when the modifier is used.\r\n\t\t_;\r\n\t}\r\n\r\n\tconstructor(address uniswapFactory) {\r\n\t\tUniswapFactoryAddress = uniswapFactory;\r\n\t\towner = msg.sender;\r\n\t}\r\n\r\n\t//Change the contract owner\r\n\tfunction changeOwner(address payable newOwner) external onlyOwner {\r\n\t\towner = newOwner;\r\n\t}\r\n\r\n\t//Change the router address\r\n\tfunction changeUniswapFactory(address newAddress) external onlyOwner {\r\n\t\tUniswapFactoryAddress = newAddress;\r\n\t}\r\n\r\n\tfunction getBestOpportunity(\r\n\t\taddress outerToken,\r\n\t\taddress innerToken,\r\n\t\taddress stdCoin,\r\n\t\tuint256 portion,\r\n\t\tbytes calldata _exchanges\r\n\t) external view returns (Opportunity memory) {\r\n\t\t//Decode object and get both direction exchanges\r\n\t\tExchanges memory exchanges = abi.decode(_exchanges, (Exchanges));\r\n\t\tExchanges memory exchangesReversed = Exchanges(exchanges.exchangeOut, exchanges.exchangeIn, exchanges.outProxy, exchanges.inProxy);\r\n\r\n\t\t//Get opportunities for both directions and compare them\r\n\t\tOpportunity memory currentOpp = getOpportunity(exchanges, outerToken, innerToken, stdCoin, portion);\r\n\t\tOpportunity memory oppositeOpp = getOpportunity(exchanges, outerToken, innerToken, stdCoin, portion);\r\n\t\tif (currentOpp.ignore) {\r\n\t\t\treturn oppositeOpp;\r\n\t\t} else if (oppositeOpp.ignore) {\r\n\t\t\treturn currentOpp;\r\n\t\t} else {\r\n\t\t\treturn currentOpp.stdDiff > oppositeOpp.stdDiff ? currentOpp : oppositeOpp;\r\n\t\t}\r\n\t}\r\n\r\n\tfunction getOpportunity(\r\n\t\tExchanges memory _exchanges,\r\n\t\taddress outerToken,\r\n\t\taddress innerToken,\r\n\t\taddress stdCoin,\r\n\t\tuint256 portion\r\n\t) internal view returns (Opportunity memory) {\r\n\t\tOptimalInfo memory awayInfo = OptimalInfo(outerToken, innerToken, 0, 0, 0, 0, 0, 0, address(0), portion, _exchanges.exchangeIn, _exchanges.inProxy, 0, 0, 0, false);\r\n\t\tOptimalInfo memory returnInfo = OptimalInfo(innerToken, outerToken, 0, 0, 0, 0, 0, 0, address(0), portion, _exchanges.exchangeOut, _exchanges.outProxy, 0, 0, 0, false);\r\n\t\tawayInfo = getAlmostAllOptimalInfo(awayInfo);\r\n\t\treturnInfo = getAlmostAllOptimalInfo(returnInfo);\r\n\t\tbool ignore = false;\r\n\t\tif (!awayInfo.ignore && !returnInfo.ignore) {\r\n\t\t\t// \tMultiplying optimal away output by return mp, multiplying optimal return output by away mp\r\n\t\t\tawayInfo = getInputOutputByExchange(awayInfo, returnInfo);\r\n\t\t\treturnInfo = getInputOutputByExchange(returnInfo, awayInfo);\r\n\t\t\tif (!awayInfo.ignore && !returnInfo.ignore) {\r\n\t\t\t\tif (awayInfo.optimalOutput <= returnInfo.optimalInput) {\r\n\t\t\t\t\t// recalc return using away's output as input\r\n\t\t\t\t\treturnInfo.optimalOutput = getOutputFromInputByExchange(awayInfo.optimalOutput, returnInfo);\r\n\t\t\t\t} else {\r\n\t\t\t\t\t// recalc away using return's input as output\r\n\t\t\t\t\tawayInfo.optimalInput = getInputFromOutputByExchange(returnInfo.optimalInput, awayInfo);\r\n\t\t\t\t\tawayInfo.optimalOutput = returnInfo.optimalInput;\r\n\t\t\t\t}\r\n\t\t\t} else {\r\n\t\t\t\tignore = true;\r\n\t\t\t}\r\n\t\t} else {\r\n\t\t\tignore = true;\r\n\t\t}\r\n\t\tOpportunity memory unstandardizedOpp = Opportunity(awayInfo.tokenIn, awayInfo.tokenOut, awayInfo.exchange, awayInfo.poolAddress, returnInfo.exchange, returnInfo.poolAddress, awayInfo.optimalInput, awayInfo.optimalOutput, returnInfo.optimalOutput, returnInfo.optimalOutput > awayInfo.optimalInput ? returnInfo.optimalOutput - awayInfo.optimalInput : 0, 0, ignore);\r\n\t\treturn standardize(unstandardizedOpp, stdCoin);\r\n\t}\r\n\r\n\tfunction standardize(Opportunity memory unstandardizedOpp, address stdCoin) internal view returns (Opportunity memory standardizedOpp) {\r\n\t\tif (unstandardizedOpp.outerCoin != stdCoin) {\r\n\t\t\ttry Uniswap.getReserves(unstandardizedOpp.outerCoin, stdCoin, UniswapFactoryAddress) returns (uint256 reserveIn, uint256 reserveOut, address poolAddress) {\r\n\t\t\t\ttry Uniswap.getAmountOut(unstandardizedOpp.diff, reserveIn, reserveOut) returns (uint256 output) {\r\n\t\t\t\t\tunstandardizedOpp.stdDiff = output;\r\n\t\t\t\t} catch {}\r\n\t\t\t} catch {}\r\n\t\t} else {\r\n\t\t\tunstandardizedOpp.stdDiff = unstandardizedOpp.diff;\r\n\t\t}\r\n\t\treturn unstandardizedOpp;\r\n\t}\r\n\r\n\tfunction getAlmostAllOptimalInfo(OptimalInfo memory info) internal view returns (OptimalInfo memory optimalInfo) {\r\n\t\tif (keccak256(bytes(info.exchange)) == keccak256(bytes('uniswap'))) {\r\n\t\t\ttry Uniswap.getReserves(info.tokenIn, info.tokenOut, info.proxy) returns (uint256 reserveIn, uint256 reserveOut, address poolAddress) {\r\n\t\t\t\t(info.reserveIn, info.reserveOut, info.poolAddress) = (reserveIn, reserveOut, poolAddress);\r\n\t\t\t\tinfo.swapFee = 18022469000000000000;\r\n\t\t\t\tinfo.optimalPreMP = Optimizers.getUniOptimalPreMP(info);\r\n\t\t\t\tinfo = getMPByExchange(info);\r\n\t\t\t} catch {\r\n\t\t\t\tinfo.ignore = true;\r\n\t\t\t}\r\n\t\t} else if (keccak256(bytes(info.exchange)) == keccak256(bytes('balancer'))) {\r\n\t\t\ttry Balancer.getPoolInfo(info.tokenIn, info.tokenOut, info.proxy) returns (address poolAddress, uint256 tokenBalanceIn, uint256 tokenBalanceOut, uint256 tokenWeightIn, uint256 tokenWeightOut, uint256 swapFee) {\r\n\t\t\t\t(info.reserveIn, info.reserveOut, info.poolAddress, info.weightIn) = (tokenBalanceIn, tokenBalanceOut, poolAddress, tokenWeightIn);\r\n\t\t\t\tinfo.weightOut = tokenWeightOut;\r\n\t\t\t\tinfo.swapFee = Optimizers.bNumToAbdk(swapFee);\r\n\t\t\t\ttry Optimizers.getBalOptimalPreMP(info) returns (OptimalInfo memory newInfo) {\r\n\t\t\t\t\tinfo = getMPByExchange(newInfo);\r\n\t\t\t\t} catch {\r\n\t\t\t\t\tinfo.ignore = true;\r\n\t\t\t\t}\r\n\t\t\t} catch {\r\n\t\t\t\tinfo.ignore = true;\r\n\t\t\t}\r\n\t\t}\r\n\t\treturn info;\r\n\t}\r\n\r\n\tfunction getMPByExchange(OptimalInfo memory params) internal pure returns (OptimalInfo memory optimalInfo) {\r\n\t\tif (keccak256(bytes(params.exchange)) == keccak256(bytes('uniswap'))) {\r\n\t\t\ttry Uniswap.getMP(params.reserveOut, params.reserveIn) returns (int128 MP) {\r\n\t\t\t\tparams.MP = MP;\r\n\t\t\t} catch {\r\n\t\t\t\tparams.ignore = true;\r\n\t\t\t}\r\n\t\t} else if (keccak256(bytes(params.exchange)) == keccak256(bytes('balancer'))) {\r\n\t\t\ttry Optimizers.calcSpotPrice(params.reserveOut, params.weightOut, params.reserveIn, params.weightIn, params.swapFee) returns (int128 MP) {\r\n\t\t\t\tparams.MP = MP;\r\n\t\t\t} catch {\r\n\t\t\t\tparams.ignore = true;\r\n\t\t\t}\r\n\t\t}\r\n\t\treturn params;\r\n\t}\r\n\r\n\tfunction getInputOutputByExchange(OptimalInfo memory info, OptimalInfo memory oppositeInfo) internal view returns (OptimalInfo memory optimalInfo) {\r\n\t\tif (keccak256(bytes(info.exchange)) == keccak256(bytes('uniswap'))) {\r\n\t\t\tinfo.optimalOutput = Optimizers.getUniOptimalGivenMp(info.optimalPreMP, oppositeInfo.MP, info.portion, info.reserveOut);\r\n\t\t\tif (info.optimalOutput > 0) {\r\n\t\t\t\ttry Uniswap.getAmountIn(info.optimalOutput, info.reserveIn, info.reserveOut) returns (uint256 optimalInput) {\r\n\t\t\t\t\tinfo.optimalInput = optimalInput;\r\n\t\t\t\t} catch {\r\n\t\t\t\t\tinfo.ignore = true;\r\n\t\t\t\t}\r\n\t\t\t} else {\r\n\t\t\t\tinfo.ignore = true;\r\n\t\t\t}\r\n\t\t} else if (keccak256(bytes(info.exchange)) == keccak256(bytes('balancer'))) {\r\n\t\t\tinfo.optimalInput = Optimizers.getBalOptimalGivenMp(info, oppositeInfo);\r\n\t\t\tif (info.optimalInput > 0) {\r\n\t\t\t\ttry Balancer.getAmountOut(info.poolAddress, info.tokenIn, info.tokenOut, info.optimalInput) returns (uint256 optimalOutput) {\r\n\t\t\t\t\tinfo.optimalOutput = optimalOutput;\r\n\t\t\t\t} catch {\r\n\t\t\t\t\tinfo.ignore = true;\r\n\t\t\t\t}\r\n\t\t\t} else {\r\n\t\t\t\tinfo.ignore = true;\r\n\t\t\t}\r\n\t\t}\r\n\t\treturn info;\r\n\t}\r\n\r\n\tfunction getInputFromOutputByExchange(uint256 output, OptimalInfo memory awayInfo) internal view returns (uint256 input) {\r\n\t\tif (output > 0) {\r\n\t\t\tif (keccak256(bytes(awayInfo.exchange)) == keccak256(bytes('uniswap'))) {\r\n\t\t\t\ttry Uniswap.getAmountIn(output, awayInfo.reserveIn, awayInfo.reserveOut) returns (uint256 input) {\r\n\t\t\t\t\treturn input;\r\n\t\t\t\t} catch {}\r\n\t\t\t} else if (keccak256(bytes(awayInfo.exchange)) == keccak256(bytes('balancer'))) {\r\n\t\t\t\ttry Balancer.getAmountIn(awayInfo.poolAddress, awayInfo.tokenIn, awayInfo.tokenOut, output) returns (uint256 input) {\r\n\t\t\t\t\treturn input;\r\n\t\t\t\t} catch {}\r\n\t\t\t}\r\n\t\t}\r\n\t\treturn 0;\r\n\t}\r\n\r\n\tfunction getOutputFromInputByExchange(uint256 input, OptimalInfo memory returnInfo) internal view returns (uint256 output) {\r\n\t\tif (input > 0) {\r\n\t\t\tif (keccak256(bytes(returnInfo.exchange)) == keccak256(bytes('uniswap'))) {\r\n\t\t\t\ttry Uniswap.getAmountOut(input, returnInfo.reserveIn, returnInfo.reserveOut) returns (uint256 output) {\r\n\t\t\t\t\treturn output;\r\n\t\t\t\t} catch {}\r\n\t\t\t} else if (keccak256(bytes(returnInfo.exchange)) == keccak256(bytes('balancer'))) {\r\n\t\t\t\ttry Balancer.getAmountOut(returnInfo.poolAddress, returnInfo.tokenIn, returnInfo.tokenOut, input) returns (uint256 output) {\r\n\t\t\t\t\treturn output;\r\n\t\t\t\t} catch {}\r\n\t\t\t}\r\n\t\t}\r\n\t\treturn 0;\r\n\t}\r\n}\r\n",
    "sourcePath": "C:\\Users\\Paul\\Desktop\\cryptoarb\\profitable-flashloans\\bot-contract\\src\\deployment\\contracts\\Opportunity\\optimalOpportunities.sol",
    "compiler": {
        "name": "solc",
        "version": "0.7.4+commit.3f05b770.Emscripten.clang"
    },
    "schemaVersion": "3.3.1",
    "updatedAt": "2021-02-26T19:50:34.932Z",
    "devdoc": {
        "kind": "dev",
        "methods": {},
        "version": 1
    },
    "userdoc": {
        "kind": "user",
        "methods": {},
        "version": 1
    }
}