{
    "contractName": "Flashloan",
    "abi": [
        {
            "inputs": [
                {
                    "internalType": "address",
                    "name": "kyberAddress",
                    "type": "address"
                },
                {
                    "internalType": "address",
                    "name": "uniswapAddress",
                    "type": "address"
                },
                {
                    "internalType": "address",
                    "name": "sushiswapAddress",
                    "type": "address"
                },
                {
                    "internalType": "address",
                    "name": "balancerAddress",
                    "type": "address"
                },
                {
                    "internalType": "address",
                    "name": "solo_",
                    "type": "address"
                }
            ],
            "payable": true,
            "stateMutability": "payable",
            "type": "constructor"
        },
        {
            "payable": true,
            "stateMutability": "payable",
            "type": "fallback"
        },
        {
            "constant": true,
            "inputs": [],
            "name": "balancerNum",
            "outputs": [
                {
                    "internalType": "uint256",
                    "name": "",
                    "type": "uint256"
                }
            ],
            "payable": false,
            "stateMutability": "view",
            "type": "function"
        },
        {
            "constant": true,
            "inputs": [],
            "name": "wethAddress",
            "outputs": [
                {
                    "internalType": "address",
                    "name": "",
                    "type": "address"
                }
            ],
            "payable": false,
            "stateMutability": "view",
            "type": "function"
        },
        {
            "constant": false,
            "inputs": [
                {
                    "internalType": "uint256",
                    "name": "newBalancerNum",
                    "type": "uint256"
                }
            ],
            "name": "updateBalancers",
            "outputs": [],
            "payable": false,
            "stateMutability": "nonpayable",
            "type": "function"
        },
        {
            "constant": false,
            "inputs": [],
            "name": "withdrawEth",
            "outputs": [],
            "payable": false,
            "stateMutability": "nonpayable",
            "type": "function"
        },
        {
            "constant": false,
            "inputs": [
                {
                    "internalType": "address",
                    "name": "token",
                    "type": "address"
                }
            ],
            "name": "withdrawErc20",
            "outputs": [],
            "payable": false,
            "stateMutability": "nonpayable",
            "type": "function"
        },
        {
            "constant": false,
            "inputs": [
                {
                    "internalType": "address payable",
                    "name": "newOwner",
                    "type": "address"
                }
            ],
            "name": "changeOwner",
            "outputs": [],
            "payable": false,
            "stateMutability": "nonpayable",
            "type": "function"
        },
        {
            "constant": false,
            "inputs": [
                {
                    "internalType": "address",
                    "name": "sender",
                    "type": "address"
                },
                {
                    "components": [
                        {
                            "internalType": "address",
                            "name": "owner",
                            "type": "address"
                        },
                        {
                            "internalType": "uint256",
                            "name": "number",
                            "type": "uint256"
                        }
                    ],
                    "internalType": "struct Account.Info",
                    "name": "account",
                    "type": "tuple"
                },
                {
                    "internalType": "bytes",
                    "name": "data",
                    "type": "bytes"
                }
            ],
            "name": "callFunction",
            "outputs": [],
            "payable": false,
            "stateMutability": "nonpayable",
            "type": "function"
        },
        {
            "constant": false,
            "inputs": [
                {
                    "internalType": "address",
                    "name": "_solo",
                    "type": "address"
                },
                {
                    "internalType": "address",
                    "name": "_Token1",
                    "type": "address"
                },
                {
                    "internalType": "address",
                    "name": "_Token2",
                    "type": "address"
                },
                {
                    "internalType": "uint256",
                    "name": "_amount",
                    "type": "uint256"
                },
                {
                    "internalType": "address",
                    "name": "_exchange1",
                    "type": "address"
                },
                {
                    "internalType": "address",
                    "name": "_exchange2",
                    "type": "address"
                }
            ],
            "name": "initiateFlashLoan",
            "outputs": [],
            "payable": false,
            "stateMutability": "nonpayable",
            "type": "function"
        }
    ],
    "bytecode": "0x60806040526040516200348f3803806200348f8339818101604052620000299190810190620002e8565b84600260006101000a81548173ffffffffffffffffffffffffffffffffffffffff021916908373ffffffffffffffffffffffffffffffffffffffff16021790555083600360006101000a81548173ffffffffffffffffffffffffffffffffffffffff021916908373ffffffffffffffffffffffffffffffffffffffff16021790555082600560006101000a81548173ffffffffffffffffffffffffffffffffffffffff021916908373ffffffffffffffffffffffffffffffffffffffff16021790555080600660006101000a81548173ffffffffffffffffffffffffffffffffffffffff021916908373ffffffffffffffffffffffffffffffffffffffff16021790555081600460006101000a81548173ffffffffffffffffffffffffffffffffffffffff021916908373ffffffffffffffffffffffffffffffffffffffff160217905550600360018190555033600760006101000a81548173ffffffffffffffffffffffffffffffffffffffff021916908373ffffffffffffffffffffffffffffffffffffffff160217905550600360009054906101000a900473ffffffffffffffffffffffffffffffffffffffff1673ffffffffffffffffffffffffffffffffffffffff1663ad5c46486040518163ffffffff1660e01b815260040160206040518083038186803b1580156200022057600080fd5b505afa15801562000235573d6000803e3d6000fd5b505050506040513d601f19601f820116820180604052506200025b9190810190620002bc565b6000806101000a81548173ffffffffffffffffffffffffffffffffffffffff021916908373ffffffffffffffffffffffffffffffffffffffff1602179055505050505050620003b8565b600081519050620002b6816200039e565b92915050565b600060208284031215620002cf57600080fd5b6000620002df84828501620002a5565b91505092915050565b600080600080600060a086880312156200030157600080fd5b60006200031188828901620002a5565b95505060206200032488828901620002a5565b94505060406200033788828901620002a5565b93505060606200034a88828901620002a5565b92505060806200035d88828901620002a5565b9150509295509295909350565b600062000377826200037e565b9050919050565b600073ffffffffffffffffffffffffffffffffffffffff82169050919050565b620003a9816200036a565b8114620003b557600080fd5b50565b6130c780620003c86000396000f3fe60806040526004361061007b5760003560e01c8063a6f9dae11161004e578063a6f9dae114610111578063c7e42b1b1461013a578063d7311b0114610163578063ec2ec9421461018c5761007b565b80630ae1af471461007d5780634f0e0ef3146100a65780638b418713146100d1578063a0ef91df146100fa575b005b34801561008957600080fd5b506100a4600480360361009f9190810190612475565b6101b7565b005b3480156100b257600080fd5b506100bb610251565b6040516100c89190612a63565b60405180910390f35b3480156100dd57600080fd5b506100f860048036036100f3919081019061237b565b610276565b005b34801561010657600080fd5b5061010f610b91565b005b34801561011d57600080fd5b50610138600480360361013391908101906122c9565b610c8c565b005b34801561014657600080fd5b50610161600480360361015c9190810190612277565b610d60565b005b34801561016f57600080fd5b5061018a600480360361018591908101906122f2565b610f31565b005b34801561019857600080fd5b506101a161128b565b6040516101ae9190612c75565b60405180910390f35b600760009054906101000a900473ffffffffffffffffffffffffffffffffffffffff1673ffffffffffffffffffffffffffffffffffffffff163373ffffffffffffffffffffffffffffffffffffffff1614610247576040517f08c379a000000000000000000000000000000000000000000000000000000000815260040161023e90612c3a565b60405180910390fd5b8060018190555050565b6000809054906101000a900473ffffffffffffffffffffffffffffffffffffffff1681565b600660009054906101000a900473ffffffffffffffffffffffffffffffffffffffff1673ffffffffffffffffffffffffffffffffffffffff163373ffffffffffffffffffffffffffffffffffffffff1614610306576040517f08c379a00000000000000000000000000000000000000000000000000000000081526004016102fd90612bda565b60405180910390fd5b61030e611e4f565b81806020019051610322919081019061244c565b90506000816060015173ffffffffffffffffffffffffffffffffffffffff166370a08231306040518263ffffffff1660e01b81526004016103639190612a7e565b60206040518083038186803b15801561037b57600080fd5b505afa15801561038f573d6000803e3d6000fd5b505050506040513d601f19601f820116820180604052506103b3919081019061249e565b9050600260009054906101000a900473ffffffffffffffffffffffffffffffffffffffff1673ffffffffffffffffffffffffffffffffffffffff16826000015173ffffffffffffffffffffffffffffffffffffffff161415610427576104228260600151836080015183611291565b61057c565b600360009054906101000a900473ffffffffffffffffffffffffffffffffffffffff1673ffffffffffffffffffffffffffffffffffffffff16826000015173ffffffffffffffffffffffffffffffffffffffff1614156104995761049482606001518360800151836113fb565b61057b565b600560009054906101000a900473ffffffffffffffffffffffffffffffffffffffff1673ffffffffffffffffffffffffffffffffffffffff16826000015173ffffffffffffffffffffffffffffffffffffffff16141561050b576105068260600151836080015183611632565b61057a565b600460009054906101000a900473ffffffffffffffffffffffffffffffffffffffff1673ffffffffffffffffffffffffffffffffffffffff16826000015173ffffffffffffffffffffffffffffffffffffffff161415610579576105788260600151836080015183611869565b5b5b5b5b6000826080015173ffffffffffffffffffffffffffffffffffffffff166370a08231306040518263ffffffff1660e01b81526004016105bb9190612a7e565b60206040518083038186803b1580156105d357600080fd5b505afa1580156105e7573d6000803e3d6000fd5b505050506040513d601f19601f8201168201806040525061060b919081019061249e565b9050600260009054906101000a900473ffffffffffffffffffffffffffffffffffffffff1673ffffffffffffffffffffffffffffffffffffffff16836020015173ffffffffffffffffffffffffffffffffffffffff16141561067f5761067a8360800151846060015183611291565b6107d4565b600360009054906101000a900473ffffffffffffffffffffffffffffffffffffffff1673ffffffffffffffffffffffffffffffffffffffff16836020015173ffffffffffffffffffffffffffffffffffffffff1614156106f1576106ec83608001518460600151836113fb565b6107d3565b600560009054906101000a900473ffffffffffffffffffffffffffffffffffffffff1673ffffffffffffffffffffffffffffffffffffffff16836020015173ffffffffffffffffffffffffffffffffffffffff1614156107635761075e8360800151846060015183611632565b6107d2565b600460009054906101000a900473ffffffffffffffffffffffffffffffffffffffff1673ffffffffffffffffffffffffffffffffffffffff16836020015173ffffffffffffffffffffffffffffffffffffffff1614156107d1576107d08360800151846060015183611869565b5b5b5b5b60008360400151846060015173ffffffffffffffffffffffffffffffffffffffff166370a08231306040518263ffffffff1660e01b81526004016108189190612a7e565b60206040518083038186803b15801561083057600080fd5b505afa158015610844573d6000803e3d6000fd5b505050506040513d601f19601f82011682018060405250610868919081019061249e565b03905060008110156108af576040517f08c379a00000000000000000000000000000000000000000000000000000000081526004016108a690612c1a565b60405180910390fd5b6000809054906101000a900473ffffffffffffffffffffffffffffffffffffffff1673ffffffffffffffffffffffffffffffffffffffff16846060015173ffffffffffffffffffffffffffffffffffffffff1614610ab65761093784606001516000809054906101000a900473ffffffffffffffffffffffffffffffffffffffff16836113fb565b6000809054906101000a900473ffffffffffffffffffffffffffffffffffffffff1673ffffffffffffffffffffffffffffffffffffffff1663a9059cbb600760009054906101000a900473ffffffffffffffffffffffffffffffffffffffff166000809054906101000a900473ffffffffffffffffffffffffffffffffffffffff1673ffffffffffffffffffffffffffffffffffffffff166370a08231306040518263ffffffff1660e01b81526004016109f19190612a7e565b60206040518083038186803b158015610a0957600080fd5b505afa158015610a1d573d6000803e3d6000fd5b505050506040513d601f19601f82011682018060405250610a41919081019061249e565b6040518363ffffffff1660e01b8152600401610a5e929190612a99565b602060405180830381600087803b158015610a7857600080fd5b505af1158015610a8c573d6000803e3d6000fd5b505050506040513d601f19601f82011682018060405250610ab09190810190612423565b50610b88565b6000809054906101000a900473ffffffffffffffffffffffffffffffffffffffff1673ffffffffffffffffffffffffffffffffffffffff1663a9059cbb600760009054906101000a900473ffffffffffffffffffffffffffffffffffffffff16836040518363ffffffff1660e01b8152600401610b34929190612a99565b602060405180830381600087803b158015610b4e57600080fd5b505af1158015610b62573d6000803e3d6000fd5b505050506040513d601f19601f82011682018060405250610b869190810190612423565b505b50505050505050565b600760009054906101000a900473ffffffffffffffffffffffffffffffffffffffff1673ffffffffffffffffffffffffffffffffffffffff163373ffffffffffffffffffffffffffffffffffffffff1614610c21576040517f08c379a0000000000000000000000000000000000000000000000000000000008152600401610c1890612c3a565b60405180910390fd5b600760009054906101000a900473ffffffffffffffffffffffffffffffffffffffff1673ffffffffffffffffffffffffffffffffffffffff166108fc479081150290604051600060405180830381858888f19350505050158015610c89573d6000803e3d6000fd5b50565b600760009054906101000a900473ffffffffffffffffffffffffffffffffffffffff1673ffffffffffffffffffffffffffffffffffffffff163373ffffffffffffffffffffffffffffffffffffffff1614610d1c576040517f08c379a0000000000000000000000000000000000000000000000000000000008152600401610d1390612c3a565b60405180910390fd5b80600760006101000a81548173ffffffffffffffffffffffffffffffffffffffff021916908373ffffffffffffffffffffffffffffffffffffffff16021790555050565b600760009054906101000a900473ffffffffffffffffffffffffffffffffffffffff1673ffffffffffffffffffffffffffffffffffffffff163373ffffffffffffffffffffffffffffffffffffffff1614610df0576040517f08c379a0000000000000000000000000000000000000000000000000000000008152600401610de790612c3a565b60405180910390fd5b60008190508073ffffffffffffffffffffffffffffffffffffffff1663a9059cbb600760009054906101000a900473ffffffffffffffffffffffffffffffffffffffff168373ffffffffffffffffffffffffffffffffffffffff166370a08231306040518263ffffffff1660e01b8152600401610e6d9190612a7e565b60206040518083038186803b158015610e8557600080fd5b505afa158015610e99573d6000803e3d6000fd5b505050506040513d601f19601f82011682018060405250610ebd919081019061249e565b6040518363ffffffff1660e01b8152600401610eda929190612a99565b602060405180830381600087803b158015610ef457600080fd5b505af1158015610f08573d6000803e3d6000fd5b505050506040513d601f19601f82011682018060405250610f2c9190810190612423565b505050565b600760009054906101000a900473ffffffffffffffffffffffffffffffffffffffff1673ffffffffffffffffffffffffffffffffffffffff163373ffffffffffffffffffffffffffffffffffffffff1614610fc1576040517f08c379a0000000000000000000000000000000000000000000000000000000008152600401610fb890612c3a565b60405180910390fd5b60008690506000610fd288886119d6565b90506000610fdf86611b88565b90508773ffffffffffffffffffffffffffffffffffffffff1663095ea7b38a836040518363ffffffff1660e01b815260040161101c929190612ac2565b602060405180830381600087803b15801561103657600080fd5b505af115801561104a573d6000803e3d6000fd5b505050506040513d601f19601f8201168201806040525061106e9190810190612423565b50606060036040519080825280602002602001820160405280156110ac57816020015b611099611ed6565b8152602001906001900390816110915790505b5090506110b98388611ba5565b816000815181106110c657fe5b60200260200101819052506111776040518060a001604052808873ffffffffffffffffffffffffffffffffffffffff1681526020018773ffffffffffffffffffffffffffffffffffffffff1681526020018481526020018b73ffffffffffffffffffffffffffffffffffffffff1681526020018a73ffffffffffffffffffffffffffffffffffffffff168152506040516020016111639190612c5a565b604051602081830303815290604052611c5e565b8160018151811061118457fe5b60200260200101819052506111998383611d08565b816002815181106111a657fe5b6020026020010181905250606060016040519080825280602002602001820160405280156111ee57816020015b6111db611f42565b8152602001906001900390816111d35790505b5090506111f9611dc1565b8160008151811061120657fe5b60200260200101819052508473ffffffffffffffffffffffffffffffffffffffff1663a67a6a4582846040518363ffffffff1660e01b815260040161124c929190612aeb565b600060405180830381600087803b15801561126657600080fd5b505af115801561127a573d6000803e3d6000fd5b505050505050505050505050505050565b60015481565b8273ffffffffffffffffffffffffffffffffffffffff1663095ea7b3600260009054906101000a900473ffffffffffffffffffffffffffffffffffffffff16836040518363ffffffff1660e01b81526004016112ee929190612ac2565b602060405180830381600087803b15801561130857600080fd5b505af115801561131c573d6000803e3d6000fd5b505050506040513d601f19601f820116820180604052506113409190810190612423565b50600260009054906101000a900473ffffffffffffffffffffffffffffffffffffffff1673ffffffffffffffffffffffffffffffffffffffff16637409e2eb84838560006040518563ffffffff1660e01b81526004016113a39493929190612b22565b602060405180830381600087803b1580156113bd57600080fd5b505af11580156113d1573d6000803e3d6000fd5b505050506040513d601f19601f820116820180604052506113f5919081019061249e565b50505050565b8273ffffffffffffffffffffffffffffffffffffffff1663095ea7b3600360009054906101000a900473ffffffffffffffffffffffffffffffffffffffff16836040518363ffffffff1660e01b8152600401611458929190612ac2565b602060405180830381600087803b15801561147257600080fd5b505af1158015611486573d6000803e3d6000fd5b505050506040513d601f19601f820116820180604052506114aa9190810190612423565b50606060026040519080825280602002602001820160405280156114dd5781602001602082028038833980820191505090505b50905083816000815181106114ee57fe5b602002602001019073ffffffffffffffffffffffffffffffffffffffff16908173ffffffffffffffffffffffffffffffffffffffff1681525050828160018151811061153657fe5b602002602001019073ffffffffffffffffffffffffffffffffffffffff16908173ffffffffffffffffffffffffffffffffffffffff1681525050600360009054906101000a900473ffffffffffffffffffffffffffffffffffffffff1673ffffffffffffffffffffffffffffffffffffffff166338ed17398360008430426040518663ffffffff1660e01b81526004016115d4959493929190612c90565b600060405180830381600087803b1580156115ee57600080fd5b505af1158015611602573d6000803e3d6000fd5b505050506040513d6000823e3d601f19601f8201168201806040525061162b91908101906123e2565b5050505050565b8273ffffffffffffffffffffffffffffffffffffffff1663095ea7b3600560009054906101000a900473ffffffffffffffffffffffffffffffffffffffff16836040518363ffffffff1660e01b815260040161168f929190612ac2565b602060405180830381600087803b1580156116a957600080fd5b505af11580156116bd573d6000803e3d6000fd5b505050506040513d601f19601f820116820180604052506116e19190810190612423565b50606060026040519080825280602002602001820160405280156117145781602001602082028038833980820191505090505b509050838160008151811061172557fe5b602002602001019073ffffffffffffffffffffffffffffffffffffffff16908173ffffffffffffffffffffffffffffffffffffffff1681525050828160018151811061176d57fe5b602002602001019073ffffffffffffffffffffffffffffffffffffffff16908173ffffffffffffffffffffffffffffffffffffffff1681525050600560009054906101000a900473ffffffffffffffffffffffffffffffffffffffff1673ffffffffffffffffffffffffffffffffffffffff166338ed17398360008430426040518663ffffffff1660e01b815260040161180b959493929190612c90565b600060405180830381600087803b15801561182557600080fd5b505af1158015611839573d6000803e3d6000fd5b505050506040513d6000823e3d601f19601f8201168201806040525061186291908101906123e2565b5050505050565b8273ffffffffffffffffffffffffffffffffffffffff1663095ea7b3600460009054906101000a900473ffffffffffffffffffffffffffffffffffffffff16836040518363ffffffff1660e01b81526004016118c6929190612ac2565b602060405180830381600087803b1580156118e057600080fd5b505af11580156118f4573d6000803e3d6000fd5b505050506040513d601f19601f820116820180604052506119189190810190612423565b50600460009054906101000a900473ffffffffffffffffffffffffffffffffffffffff1673ffffffffffffffffffffffffffffffffffffffff166321b0eb85848484600060036040518663ffffffff1660e01b815260040161197e959493929190612b67565b602060405180830381600087803b15801561199857600080fd5b505af11580156119ac573d6000803e3d6000fd5b505050506040513d601f19601f820116820180604052506119d0919081019061249e565b50505050565b60008083905060008173ffffffffffffffffffffffffffffffffffffffff1663295c39a56040518163ffffffff1660e01b815260040160206040518083038186803b158015611a2457600080fd5b505afa158015611a38573d6000803e3d6000fd5b505050506040513d601f19601f82011682018060405250611a5c919081019061249e565b9050600080600090505b82811015611b46578373ffffffffffffffffffffffffffffffffffffffff1663062bd3e9826040518263ffffffff1660e01b8152600401611aa79190612c75565b60206040518083038186803b158015611abf57600080fd5b505afa158015611ad3573d6000803e3d6000fd5b505050506040513d601f19601f82011682018060405250611af791908101906122a0565b91508573ffffffffffffffffffffffffffffffffffffffff168273ffffffffffffffffffffffffffffffffffffffff161415611b395780945050505050611b82565b8080600101915050611a66565b506040517f08c379a0000000000000000000000000000000000000000000000000000000008152600401611b7990612bfa565b60405180910390fd5b92915050565b6000611b9e600283611dfa90919063ffffffff16565b9050919050565b611bad611f72565b60405180610100016040528060016008811115611bc657fe5b815260200160008152602001604051806080016040528060001515815260200160006001811115611bf357fe5b815260200160006001811115611c0557fe5b8152602001858152508152602001848152602001600081526020013073ffffffffffffffffffffffffffffffffffffffff1681526020016000815260200160405180602001604052806000815250815250905092915050565b611c66611f72565b604051806101000160405280600880811115611c7e57fe5b815260200160008152602001604051806080016040528060001515815260200160006001811115611cab57fe5b815260200160006001811115611cbd57fe5b81526020016000815250815260200160008152602001600081526020013073ffffffffffffffffffffffffffffffffffffffff16815260200160008152602001838152509050919050565b611d10611f72565b60405180610100016040528060006008811115611d2957fe5b815260200160008152602001604051806080016040528060011515815260200160006001811115611d5657fe5b815260200160006001811115611d6857fe5b8152602001858152508152602001848152602001600081526020013073ffffffffffffffffffffffffffffffffffffffff1681526020016000815260200160405180602001604052806000815250815250905092915050565b611dc9611fde565b60405180604001604052803073ffffffffffffffffffffffffffffffffffffffff1681526020016001815250905090565b600080828401905083811015611e45576040517f08c379a0000000000000000000000000000000000000000000000000000000008152600401611e3c90612bba565b60405180910390fd5b8091505092915050565b6040518060a00160405280600073ffffffffffffffffffffffffffffffffffffffff168152602001600073ffffffffffffffffffffffffffffffffffffffff16815260200160008152602001600073ffffffffffffffffffffffffffffffffffffffff168152602001600073ffffffffffffffffffffffffffffffffffffffff1681525090565b60405180610100016040528060006008811115611eef57fe5b815260200160008152602001611f0361200e565b81526020016000815260200160008152602001600073ffffffffffffffffffffffffffffffffffffffff16815260200160008152602001606081525090565b6040518060400160405280600073ffffffffffffffffffffffffffffffffffffffff168152602001600081525090565b60405180610100016040528060006008811115611f8b57fe5b815260200160008152602001611f9f61200e565b81526020016000815260200160008152602001600073ffffffffffffffffffffffffffffffffffffffff16815260200160008152602001606081525090565b6040518060400160405280600073ffffffffffffffffffffffffffffffffffffffff168152602001600081525090565b60405180608001604052806000151581526020016000600181111561202f57fe5b81526020016000600181111561204157fe5b8152602001600081525090565b60008135905061205d81613028565b92915050565b60008151905061207281613028565b92915050565b6000813590506120878161303f565b92915050565b600082601f83011261209e57600080fd5b81516120b16120ac82612d17565b612cea565b915081818352602084019350602081019050838560208402820111156120d657600080fd5b60005b8381101561210657816120ec8882612262565b8452602084019350602083019250506001810190506120d9565b5050505092915050565b60008151905061211f81613056565b92915050565b600082601f83011261213657600080fd5b813561214961214482612d3f565b612cea565b9150808252602083016020830185838301111561216557600080fd5b612170838284612fae565b50505092915050565b600060a0828403121561218b57600080fd5b61219560a0612cea565b905060006121a584828501612063565b60008301525060206121b984828501612063565b60208301525060406121cd84828501612262565b60408301525060606121e184828501612063565b60608301525060806121f584828501612063565b60808301525092915050565b60006040828403121561221357600080fd5b61221d6040612cea565b9050600061222d8482850161204e565b60008301525060206122418482850161224d565b60208301525092915050565b60008135905061225c8161306d565b92915050565b6000815190506122718161306d565b92915050565b60006020828403121561228957600080fd5b60006122978482850161204e565b91505092915050565b6000602082840312156122b257600080fd5b60006122c084828501612063565b91505092915050565b6000602082840312156122db57600080fd5b60006122e984828501612078565b91505092915050565b60008060008060008060c0878903121561230b57600080fd5b600061231989828a0161204e565b965050602061232a89828a0161204e565b955050604061233b89828a0161204e565b945050606061234c89828a0161224d565b935050608061235d89828a0161204e565b92505060a061236e89828a0161204e565b9150509295509295509295565b60008060006080848603121561239057600080fd5b600061239e8682870161204e565b93505060206123af86828701612201565b925050606084013567ffffffffffffffff8111156123cc57600080fd5b6123d886828701612125565b9150509250925092565b6000602082840312156123f457600080fd5b600082015167ffffffffffffffff81111561240e57600080fd5b61241a8482850161208d565b91505092915050565b60006020828403121561243557600080fd5b600061244384828501612110565b91505092915050565b600060a0828403121561245e57600080fd5b600061246c84828501612179565b91505092915050565b60006020828403121561248757600080fd5b60006124958482850161224d565b91505092915050565b6000602082840312156124b057600080fd5b60006124be84828501612262565b91505092915050565b60006124d3838361251a565b60208301905092915050565b60006124eb83836128a6565b905092915050565b60006124ff8383612a16565b60408301905092915050565b61251481612ed6565b82525050565b61252381612e43565b82525050565b61253281612e43565b82525050565b600061254382612d9b565b61254d8185612dee565b935061255883612d6b565b8060005b8381101561258957815161257088826124c7565b975061257b83612dc7565b92505060018101905061255c565b5085935050505092915050565b60006125a182612da6565b6125ab8185612dff565b9350836020820285016125bd85612d7b565b8060005b858110156125f957848403895281516125da85826124df565b94506125e583612dd4565b925060208a019950506001810190506125c1565b50829750879550505050505092915050565b600061261682612db1565b6126208185612e10565b935061262b83612d8b565b8060005b8381101561265c57815161264388826124f3565b975061264e83612de1565b92505060018101905061262f565b5085935050505092915050565b61267281612e67565b82525050565b600061268382612dbc565b61268d8185612e21565b935061269d818560208601612fbd565b6126a681612ff0565b840191505092915050565b6126ba81612ee8565b82525050565b6126c981612f0c565b82525050565b6126d881612f30565b82525050565b6126e781612f42565b82525050565b6126f681612f54565b82525050565b61270581612f66565b82525050565b61271481612f78565b82525050565b6000612727601b83612e32565b91507f536166654d6174683a206164646974696f6e206f766572666c6f7700000000006000830152602082019050919050565b6000612767601f83612e32565b91507f43616c6c6261636b20776173206e6f742063616c6c65642062792064796478006000830152602082019050919050565b60006127a7602483612e32565b91507f4e6f206d61726b6574496420666f756e6420666f722070726f7669646564207460008301527f6f6b656e000000000000000000000000000000000000000000000000000000006020830152604082019050919050565b600061280d602383612e32565b91507f4e6f7420456e6f7567682066756e647320746f2072657061792064796478206c60008301527f6f616e00000000000000000000000000000000000000000000000000000000006020830152604082019050919050565b6000612873601683612e32565b91507f53656e646572206e6f7420617574686f72697a65642e000000000000000000006000830152602082019050919050565b6000610160830160008301516128bf60008601826126cf565b5060208301516128d26020860182612a45565b5060408301516128e560408601826129c1565b5060608301516128f860c0860182612a45565b50608083015161290b60e0860182612a45565b5060a083015161291f61010086018261251a565b5060c0830151612933610120860182612a45565b5060e083015184820361014086015261294c8282612678565b9150508091505092915050565b60a08201600082015161296f600085018261251a565b506020820151612982602085018261251a565b5060408201516129956040850182612a45565b5060608201516129a8606085018261251a565b5060808201516129bb608085018261251a565b50505050565b6080820160008201516129d76000850182612669565b5060208201516129ea60208501826126de565b5060408201516129fd60408501826126ed565b506060820151612a106060850182612a45565b50505050565b604082016000820151612a2c600085018261251a565b506020820151612a3f6020850182612a45565b50505050565b612a4e81612ecc565b82525050565b612a5d81612ecc565b82525050565b6000602082019050612a786000830184612529565b92915050565b6000602082019050612a93600083018461250b565b92915050565b6000604082019050612aae600083018561250b565b612abb6020830184612a54565b9392505050565b6000604082019050612ad76000830185612529565b612ae46020830184612a54565b9392505050565b60006040820190508181036000830152612b05818561260b565b90508181036020830152612b198184612596565b90509392505050565b6000608082019050612b3760008301876126b1565b612b446020830186612a54565b612b5160408301856126b1565b612b5e60608301846126fc565b95945050505050565b600060a082019050612b7c60008301886126c0565b612b8960208301876126c0565b612b966040830186612a54565b612ba360608301856126fc565b612bb0608083018461270b565b9695505050505050565b60006020820190508181036000830152612bd38161271a565b9050919050565b60006020820190508181036000830152612bf38161275a565b9050919050565b60006020820190508181036000830152612c138161279a565b9050919050565b60006020820190508181036000830152612c3381612800565b9050919050565b60006020820190508181036000830152612c5381612866565b9050919050565b600060a082019050612c6f6000830184612959565b92915050565b6000602082019050612c8a6000830184612a54565b92915050565b600060a082019050612ca56000830188612a54565b612cb260208301876126fc565b8181036040830152612cc48186612538565b9050612cd3606083018561250b565b612ce06080830184612a54565b9695505050505050565b6000604051905081810181811067ffffffffffffffff82111715612d0d57600080fd5b8060405250919050565b600067ffffffffffffffff821115612d2e57600080fd5b602082029050602081019050919050565b600067ffffffffffffffff821115612d5657600080fd5b601f19601f8301169050602081019050919050565b6000819050602082019050919050565b6000819050602082019050919050565b6000819050602082019050919050565b600081519050919050565b600081519050919050565b600081519050919050565b600081519050919050565b6000602082019050919050565b6000602082019050919050565b6000602082019050919050565b600082825260208201905092915050565b600082825260208201905092915050565b600082825260208201905092915050565b600082825260208201905092915050565b600082825260208201905092915050565b6000612e4e82612eac565b9050919050565b6000612e6082612eac565b9050919050565b60008115159050919050565b6000819050612e8182613001565b919050565b6000819050612e948261300e565b919050565b6000819050612ea78261301b565b919050565b600073ffffffffffffffffffffffffffffffffffffffff82169050919050565b6000819050919050565b6000612ee182612f8a565b9050919050565b6000612ef382612efa565b9050919050565b6000612f0582612eac565b9050919050565b6000612f1782612f1e565b9050919050565b6000612f2982612eac565b9050919050565b6000612f3b82612e73565b9050919050565b6000612f4d82612e86565b9050919050565b6000612f5f82612e99565b9050919050565b6000612f7182612ecc565b9050919050565b6000612f8382612ecc565b9050919050565b6000612f9582612f9c565b9050919050565b6000612fa782612eac565b9050919050565b82818337600083830152505050565b60005b83811015612fdb578082015181840152602081019050612fc0565b83811115612fea576000848401525b50505050565b6000601f19601f8301169050919050565b6009811061300b57fe5b50565b6002811061301857fe5b50565b6002811061302557fe5b50565b61303181612e43565b811461303c57600080fd5b50565b61304881612e55565b811461305357600080fd5b50565b61305f81612e67565b811461306a57600080fd5b50565b61307681612ecc565b811461308157600080fd5b5056fea365627a7a72315820d0cfc9aee4efbff5d262888002cacc8eb4c09c2b2cf0dc819dd9c72ce636864b6c6578706572696d656e74616cf564736f6c63430005100040",
    "source": "pragma solidity >=0.5.0;\r\npragma experimental ABIEncoderV2;\r\n\r\n//Import money-legos from github\r\nimport \"@studydefi/money-legos/dydx/contracts/DydxFlashloanBase.sol\";\r\nimport \"@studydefi/money-legos/dydx/contracts/ICallee.sol\";\r\n\r\n//import ERC20 token functions\r\nimport \"@openzeppelin/contracts/token/ERC20/IERC20.sol\";\r\n\r\n//Uniswap helper functions\r\nimport '@uniswap/v2-core/contracts/interfaces/IUniswapV2Pair.sol';\r\n\r\nimport \"./IUniswapV2Router02.sol\";\r\nimport \"./IWeth.sol\";\r\nimport \"./BalancerExchangeProxy.sol\";\r\n//import \"./TransferHelper.sol\";\r\nimport { KyberNetworkProxy as IKyberNetworkProxy } from '@studydefi/money-legos/kyber/contracts/KyberNetworkProxy.sol';\r\n\r\ncontract Flashloan is ICallee, DydxFlashloanBase {\r\n\r\n    address public wethAddress;\r\n    uint public balancerNum;\r\n\r\n    struct ArbInfo {\r\n        address exchange1;\r\n        address exchange2;\r\n        uint256 repayAmount;\r\n        address Token1;\r\n        address Token2;\r\n    }\r\n\r\n    //Initialize other contracts\r\n    IKyberNetworkProxy kyber;\r\n    IUniswapV2Router02 uniswap;\r\n    ExchangeProxy balancer;\r\n    IUniswapV2Router02 sushiswap;\r\n    address dydx;\r\n    address payable owner;\r\n\r\n\r\n    //Create modifier to limit who can call the contract\r\n    modifier onlyOwner()\r\n    {\r\n        require(\r\n            msg.sender == owner,\r\n            \"Sender not authorized.\"\r\n        );\r\n        // Do not forget the \"_;\"! It will\r\n        // be replaced by the actual function\r\n        // body when the modifier is used.\r\n        _;\r\n    }\r\n\r\n    //Create address variables for relevant exchanges\r\n    constructor(\r\n        address kyberAddress,\r\n        address uniswapAddress,\r\n        address sushiswapAddress,\r\n        address balancerAddress,\r\n        address solo_\r\n    )\r\n    public \r\n    payable{\r\n        kyber = IKyberNetworkProxy(kyberAddress);\r\n        uniswap = IUniswapV2Router02(uniswapAddress);\r\n        sushiswap = IUniswapV2Router02(sushiswapAddress);\r\n        dydx = solo_;\r\n        balancer = ExchangeProxy(balancerAddress);\r\n        balancerNum = 3;\r\n        //IERC20 is the ERC20 protocol contract\r\n        owner = msg.sender;\r\n        wethAddress = uniswap.WETH();\r\n\r\n    }\r\n\r\n    //Updates the number of balancer pools we use\r\n    function updateBalancers(uint newBalancerNum) public onlyOwner {\r\n        balancerNum = newBalancerNum;\r\n    }\r\n\r\n    //Withdraws any ethereum from the address\r\n    function withdrawEth() public onlyOwner {\r\n        owner.transfer(address(this).balance);\r\n    }\r\n\r\n    //Withdraw a specific ERC20 token\r\n    function withdrawErc20(address token) external onlyOwner {\r\n        IERC20 newToken = IERC20(token);\r\n        newToken.transfer(owner, newToken.balanceOf(address(this)));\r\n    }\r\n\r\n    //Change the contract owner\r\n    function changeOwner(address payable newOwner) external onlyOwner{\r\n        owner = newOwner;\r\n    }\r\n\r\n    //This functions exchanges sellBalance of sellCoin for buyCoin\r\n    function tradeOnUniswap(address sellCoin, address buyCoin, uint256 sellBalance) private {\r\n        IERC20(sellCoin).approve(address(uniswap), sellBalance);\r\n\r\n        address[] memory path = new address[](2);\r\n        path[0] = sellCoin;\r\n        path[1] = buyCoin;\r\n\r\n        //uint[] memory minOuts = uniswap.getAmountsOut(sellBalance, path);\r\n        uniswap.swapExactTokensForTokens(\r\n            sellBalance,\r\n            0,\r\n            path,\r\n            address(this),\r\n            now\r\n        );\r\n    }\r\n\r\n        //This functions exchanges sellBalance of sellCoin for buyCoin\r\n    function tradeOnSushiSwap(address sellCoin, address buyCoin, uint256 sellBalance) private {\r\n        IERC20(sellCoin).approve(address(sushiswap), sellBalance);\r\n\r\n        address[] memory path = new address[](2);\r\n        path[0] = sellCoin;\r\n        path[1] = buyCoin;\r\n\r\n        //uint[] memory minOuts = sushiswap.getAmountsOut(sellBalance, path);\r\n        sushiswap.swapExactTokensForTokens(\r\n            sellBalance,\r\n            0,\r\n            path,\r\n            address(this),\r\n            now\r\n        );\r\n    }\r\n\r\n\r\n    function tradeOnKyber(address sellCoin, address buyCoin, uint256 sellBalance) private {\r\n        IERC20(sellCoin).approve(address(kyber), sellBalance);\r\n\r\n        // (uint256 expectedRate, uint256 worstRate) = kyber.getExpectedRate(\r\n        //     IERC20(sellCoin),\r\n        //     IERC20(buyCoin),\r\n        //     sellBalance\r\n        // ); DONT NEED THIS CAUSE WE ACCEPT 0 RATE\r\n\r\n       kyber.swapTokenToToken(\r\n           IERC20(sellCoin), \r\n           sellBalance, \r\n           IERC20(buyCoin), \r\n           0 //Min Output amount\r\n        );\r\n    }\r\n\r\n\r\n    function tradeOnBalancer(address sellCoin, address buyCoin, uint256 sellBalance) private {\r\n        IERC20(sellCoin).approve(address(balancer), sellBalance);\r\n\r\n        balancer.smartSwapExactIn(\r\n        TokenInterface(sellCoin),\r\n        TokenInterface(buyCoin),\r\n        sellBalance, // maxAmountIn, set to max -> use all sent ETH\r\n        0, // Min out 0 means we accept any amount\r\n        3 // max pools\r\n    );\r\n\r\n    }\r\n\r\n\r\n    // This is the function that will be called postLoan\r\n    // i.e. Encode the logic to handle your flashloaned funds here\r\n    function callFunction(\r\n        address sender,\r\n        Account.Info memory account,\r\n        bytes memory data\r\n    ) public{\r\n        require(msg.sender == dydx, \"Callback was not called by dydx\");\r\n\r\n        ArbInfo memory arbInfo = abi.decode(data, (ArbInfo)); //Decode custom passed data (sent through dydx)\r\n\r\n        uint256 Token1Balance = IERC20(arbInfo.Token1).balanceOf(address(this)); //This balance is from the flash loan of token1\r\n\r\n        if(arbInfo.exchange1 == address(kyber)){\r\n            tradeOnKyber(arbInfo.Token1, arbInfo.Token2, Token1Balance);\r\n        }\r\n        else if (arbInfo.exchange1 == address(uniswap)){\r\n            tradeOnUniswap(arbInfo.Token1, arbInfo.Token2, Token1Balance);\r\n        }\r\n        else if(arbInfo.exchange1 == address(sushiswap)){\r\n            tradeOnSushiSwap(arbInfo.Token1, arbInfo.Token2, Token1Balance);\r\n        }\r\n        else if(arbInfo.exchange1 == address(balancer)){\r\n            tradeOnBalancer(arbInfo.Token1, arbInfo.Token2, Token1Balance);\r\n        }\r\n\r\n        uint256 Token2Balance = IERC20(arbInfo.Token2).balanceOf(address(this)); //Get new balance of token 2 after trade\r\n\r\n        if(arbInfo.exchange2 == address(kyber)){\r\n            tradeOnKyber(arbInfo.Token2, arbInfo.Token1, Token2Balance);\r\n        }\r\n        else if(arbInfo.exchange2 == address(uniswap)){\r\n            tradeOnUniswap(arbInfo.Token2, arbInfo.Token1, Token2Balance);\r\n        }\r\n        else if(arbInfo.exchange2 == address(sushiswap)){\r\n            tradeOnSushiSwap(arbInfo.Token2, arbInfo.Token1, Token2Balance);\r\n        }\r\n        else if(arbInfo.exchange2 == address(balancer)){\r\n            tradeOnBalancer(arbInfo.Token2, arbInfo.Token1, Token2Balance);\r\n        }\r\n\r\n        uint profit = IERC20(arbInfo.Token1).balanceOf(address(this)) - arbInfo.repayAmount; \r\n\r\n        //Loan must be repayed or contract wont execute\r\n        require(\r\n            profit >= 0,\r\n            \"Not Enough funds to repay dydx loan\"\r\n        );\r\n\r\n        //Sell to WETH\r\n        if(arbInfo.Token1 != wethAddress){\r\n        tradeOnUniswap(arbInfo.Token1, wethAddress, profit);\r\n        IERC20(wethAddress).transfer(owner, IERC20(wethAddress).balanceOf(address(this)));\r\n        }else{\r\n        IERC20(wethAddress).transfer(owner, profit);\r\n        }\r\n\r\n    }\r\n\r\n    //This is the function that initiates the arbitrage play\r\n    //It withdraws the flashloan from dydx and then calls the callFunction in this contract and then deposits the flashloan back\r\n    function initiateFlashLoan(\r\n        address _solo, \r\n        address _Token1, \r\n        address _Token2, \r\n        uint256 _amount,\r\n        address _exchange1,\r\n        address _exchange2)\r\n        external onlyOwner\r\n    {\r\n        ISoloMargin solo = ISoloMargin(_solo);\r\n\r\n        // Get marketId from token address\r\n        uint256 marketId = _getMarketIdFromTokenAddress(_solo, _Token1);\r\n\r\n        // Calculate repay amount (_amount + (2 wei))\r\n        // Approve transfer from\r\n        uint256 repayAmount = _getRepaymentAmountInternal(_amount);\r\n        IERC20(_Token1).approve(_solo, repayAmount);\r\n\r\n        // 1. Withdraw $\r\n        // 2. Call callFunction(...)\r\n        // 3. Deposit back $\r\n        Actions.ActionArgs[] memory operations = new Actions.ActionArgs[](3);\r\n\r\n        operations[0] = _getWithdrawAction(marketId, _amount);\r\n        operations[1] = _getCallAction(\r\n            // Encode MyCustomData for callFunction\r\n            abi.encode(ArbInfo({exchange1: _exchange1, exchange2: _exchange2, repayAmount: repayAmount, Token1: _Token1, Token2: _Token2}))\r\n        );\r\n        operations[2] = _getDepositAction(marketId, repayAmount);\r\n\r\n        Account.Info[] memory accountInfos = new Account.Info[](1);\r\n        accountInfos[0] = _getAccountInfo();\r\n\r\n        solo.operate(accountInfos, operations);\r\n    }\r\n\r\n    function() external payable {}\r\n}",
    "sourcePath": "C:/Users/pbdon/Desktop/Flashloans/EthDev/bot-contract/src/deployment/contracts/Flashloan.sol",
    "compiler": {
        "name": "solc",
        "version": "0.5.16+commit.9c3226ce.Emscripten.clang"
    },
    "schemaVersion": "3.3.2",
    "updatedAt": "2020-12-30T20:33:30.662Z",
    "devdoc": {
        "methods": {}
    },
    "userdoc": {
        "methods": {}
    }
}